{"abi":[{"type":"constructor","inputs":[],"stateMutability":"nonpayable"},{"type":"function","name":"buyTicket","inputs":[{"name":"tokenId","type":"uint256","internalType":"uint256"},{"name":"newHashedUserInfo","type":"bytes32","internalType":"bytes32"}],"outputs":[],"stateMutability":"payable"},{"type":"function","name":"delistTicket","inputs":[{"name":"tokenId","type":"uint256","internalType":"uint256"}],"outputs":[],"stateMutability":"nonpayable"},{"type":"function","name":"feePercentage","inputs":[],"outputs":[{"name":"","type":"uint256","internalType":"uint256"}],"stateMutability":"view"},{"type":"function","name":"feeRecipient","inputs":[],"outputs":[{"name":"","type":"address","internalType":"address"}],"stateMutability":"view"},{"type":"function","name":"getListing","inputs":[{"name":"tokenId","type":"uint256","internalType":"uint256"}],"outputs":[{"name":"","type":"tuple","internalType":"struct Marketplace.Listing","components":[{"name":"seller","type":"address","internalType":"address"},{"name":"price","type":"uint256","internalType":"uint256"}]}],"stateMutability":"view"},{"type":"function","name":"initialize","inputs":[{"name":"_ticketFactory","type":"address","internalType":"contract TicketFactory"}],"outputs":[],"stateMutability":"nonpayable"},{"type":"function","name":"listTicketForResale","inputs":[{"name":"tokenId","type":"uint256","internalType":"uint256"},{"name":"price","type":"uint256","internalType":"uint256"}],"outputs":[],"stateMutability":"nonpayable"},{"type":"function","name":"listings","inputs":[{"name":"","type":"address","internalType":"address"},{"name":"","type":"uint256","internalType":"uint256"}],"outputs":[{"name":"seller","type":"address","internalType":"address"},{"name":"price","type":"uint256","internalType":"uint256"}],"stateMutability":"view"},{"type":"function","name":"ticketFactory","inputs":[],"outputs":[{"name":"","type":"address","internalType":"contract TicketFactory"}],"stateMutability":"view"},{"type":"event","name":"TicketDelisted","inputs":[{"name":"tokenId","type":"uint256","indexed":true,"internalType":"uint256"},{"name":"seller","type":"address","indexed":true,"internalType":"address"}],"anonymous":false},{"type":"event","name":"TicketListed","inputs":[{"name":"seller","type":"address","indexed":true,"internalType":"address"},{"name":"tokenId","type":"uint256","indexed":true,"internalType":"uint256"},{"name":"price","type":"uint256","indexed":false,"internalType":"uint256"}],"anonymous":false},{"type":"event","name":"TicketSold","inputs":[{"name":"tokenId","type":"uint256","indexed":true,"internalType":"uint256"},{"name":"seller","type":"address","indexed":true,"internalType":"address"},{"name":"buyer","type":"address","indexed":true,"internalType":"address"},{"name":"price","type":"uint256","indexed":false,"internalType":"uint256"}],"anonymous":false}],"bytecode":{"object":"0x6080806040523460155761066f908161001a8239f35b5f80fdfe6080806040526004361015610012575f80fd5b5f905f3560e01c90816207df301461059057508063068f46ce14610569578063107a274a146104ef5780632bbe807b146103d257806346904840146103aa5780636053b0ef1461026d578063a001ecdd14610250578063c4d66de8146101d05763df60aff214610080575f80fd5b60403660031901126101935760043560018060a01b035f5416805f52600360205260405f20825f5260205260405f2060018101918254156101975781546001600160a01b0316813b15610193575f916084839260405194859384926383d2524160e01b8452600484015289602484015233604484015260243560648401525af1801561018857610173575b5054905460405190815233916001600160a01b03169083907f2bbc64d6afd28a753f6c5e4aaa894f1d684c44a0e080167eae104ac8505cfebd90602090a460018060a01b03825416825260036020526040822090825260205280600160408220828155015580f35b6101809194505f90610617565b5f925f61010b565b6040513d5f823e3d90fd5b5f80fd5b60405162461bcd60e51b8152602060048201526011602482015270151a58dad95d081b9bdd081b1a5cdd1959607a1b6044820152606490fd5b34610193576020366003190112610193576004356001600160a01b03811690819003610193575f546001600160a01b038116610215576001600160a01b031916175f55005b60405162461bcd60e51b8152602060048201526013602482015272105b1c9958591e481a5b9a5d1a585b1a5e9959606a1b6044820152606490fd5b34610193575f366003190112610193576020600254604051908152f35b34610193576040366003190112610193576004356024358015610371575f5460405163c9450ee760e01b8152600481018490526001600160a01b0390911690602081602481855afa801561018857610342575b506001604051916102d0836105e7565b33835260208301908482525f52600360205260405f20855f5260205260405f2092828060a01b039051166bffffffffffffffffffffffff60a01b845416178355519101556040519081527f4260d3808e06e6b1f21d848e4ee864a963d1694a0be91d6f89e741a2d797a0fe60203392a3005b6020813d602011610369575b8161035b60209383610617565b8101031261019357516102c0565b3d915061034e565b60405162461bcd60e51b815260206004820152601160248201527005072696365206d757374206265203e203607c1b6044820152606490fd5b34610193575f366003190112610193576001546040516001600160a01b039091168152602090f35b34610193576020366003190112610193575f546040516331a9108f60e11b815260048035908201819052916001600160a01b031690602081602481855afa908115610188575f916104ad575b50336001600160a01b0390911603610475575f52600360205260405f20815f526020525f600160408220828155015533907fc116abad2a02ba3ce14050336137b8c63fa9fb38efd9381b7b81f7c93223aba35f80a3005b60405162461bcd60e51b815260206004820152601060248201526f2737ba103a34b1b5b2ba1037bbb732b960811b6044820152606490fd5b90506020813d6020116104e7575b816104c860209383610617565b8101031261019357516001600160a01b0381168103610193578361041e565b3d91506104bb565b34610193576020366003190112610193575f602060405161050f816105e7565b828152015260018060a01b035f54165f52600360205260405f206004355f526020526040805f208151610541816105e7565b81546001600160a01b0316808252600190920154602091820190815283519283525190820152f35b34610193575f366003190112610193575f546040516001600160a01b039091168152602090f35b34610193576040366003190112610193576004356001600160a01b0381169190829003610193576040915f526003602052815f206024355f52602052815f206001808060a01b038254169101549082526020820152f35b6040810190811067ffffffffffffffff82111761060357604052565b634e487b7160e01b5f52604160045260245ffd5b90601f8019910116810190811067ffffffffffffffff8211176106035760405256fea26469706673582212209c817f3b14545f9381b3291d6c544ac8ebc89d2b6bfb56b74ea85230fff0b7e964736f6c634300081c0033","linkReferences":{}},"methodIdentifiers":{"buyTicket(uint256,bytes32)":"df60aff2","delistTicket(uint256)":"2bbe807b","feePercentage()":"a001ecdd","feeRecipient()":"46904840","getListing(uint256)":"107a274a","initialize(address)":"c4d66de8","listTicketForResale(uint256,uint256)":"6053b0ef","listings(address,uint256)":"0007df30","ticketFactory()":"068f46ce"},"id":40}