{"abi":[{"type":"constructor","inputs":[],"stateMutability":"nonpayable"},{"type":"function","name":"buyTicket","inputs":[{"name":"tokenId","type":"uint256","internalType":"uint256"},{"name":"to","type":"address","internalType":"address"},{"name":"newHashedUserInfo","type":"bytes32","internalType":"bytes32"}],"outputs":[],"stateMutability":"payable"},{"type":"function","name":"delistTicket","inputs":[{"name":"tokenId","type":"uint256","internalType":"uint256"}],"outputs":[],"stateMutability":"nonpayable"},{"type":"function","name":"feePercentage","inputs":[],"outputs":[{"name":"","type":"uint256","internalType":"uint256"}],"stateMutability":"view"},{"type":"function","name":"feeRecipient","inputs":[],"outputs":[{"name":"","type":"address","internalType":"address"}],"stateMutability":"view"},{"type":"function","name":"getListing","inputs":[{"name":"tokenId","type":"uint256","internalType":"uint256"}],"outputs":[{"name":"","type":"tuple","internalType":"struct Marketplace.Listing","components":[{"name":"seller","type":"address","internalType":"address"},{"name":"price","type":"uint256","internalType":"uint256"}]}],"stateMutability":"view"},{"type":"function","name":"initialize","inputs":[{"name":"_ticketFactory","type":"address","internalType":"contract TicketFactory"}],"outputs":[],"stateMutability":"nonpayable"},{"type":"function","name":"listTicketForResale","inputs":[{"name":"tokenId","type":"uint256","internalType":"uint256"},{"name":"owner","type":"address","internalType":"address"},{"name":"price","type":"uint256","internalType":"uint256"}],"outputs":[],"stateMutability":"nonpayable"},{"type":"function","name":"listings","inputs":[{"name":"","type":"address","internalType":"address"},{"name":"","type":"uint256","internalType":"uint256"}],"outputs":[{"name":"seller","type":"address","internalType":"address"},{"name":"price","type":"uint256","internalType":"uint256"}],"stateMutability":"view"},{"type":"function","name":"ticketFactory","inputs":[],"outputs":[{"name":"","type":"address","internalType":"contract TicketFactory"}],"stateMutability":"view"},{"type":"event","name":"TicketDelisted","inputs":[{"name":"tokenId","type":"uint256","indexed":true,"internalType":"uint256"},{"name":"seller","type":"address","indexed":true,"internalType":"address"}],"anonymous":false},{"type":"event","name":"TicketListed","inputs":[{"name":"seller","type":"address","indexed":true,"internalType":"address"},{"name":"tokenId","type":"uint256","indexed":true,"internalType":"uint256"},{"name":"price","type":"uint256","indexed":false,"internalType":"uint256"}],"anonymous":false},{"type":"event","name":"TicketSold","inputs":[{"name":"tokenId","type":"uint256","indexed":true,"internalType":"uint256"},{"name":"seller","type":"address","indexed":true,"internalType":"address"},{"name":"buyer","type":"address","indexed":true,"internalType":"address"},{"name":"price","type":"uint256","indexed":false,"internalType":"uint256"}],"anonymous":false}],"bytecode":{"object":"0x60808060405234601557610583908161001a8239f35b5f80fdfe6080806040526004361015610012575f80fd5b5f905f3560e01c90816207df301461048e57508063068f46ce14610467578063107a274a146103ed5780632bbe807b1461038a57806346904840146103625780636480897414610248578063a001ecdd1461022a578063c4d66de8146101a45763d70bc08414610080575f80fd5b346101a15760603660031901126101a15760043561009c6104e5565b825460405163c9450ee760e01b8152600481018490526001600160a01b03909116919060443590602081602481875afa80156101965761015f575b506020907f4260d3808e06e6b1f21d848e4ee864a963d1694a0be91d6f89e741a2d797a0fe9260016040519161010c836104fb565b818060a01b0316958683528483019084825289526003855260408920888a5285526040892092828060a01b039051166bffffffffffffffffffffffff60a01b84541617835551910155604051908152a380f35b906020823d60201161018e575b816101796020938361052b565b8101031261018a57905060206100d7565b8580fd5b3d915061016c565b6040513d88823e3d90fd5b80fd5b50346101a15760203660031901126101a1576004356001600160a01b038116908190036102265781546001600160a01b0381166101eb576001600160a01b03191617815580f35b60405162461bcd60e51b8152602060048201526013602482015272105b1c9958591e481a5b9a5d1a585b1a5e9959606a1b6044820152606490fd5b5080fd5b50346101a157806003193601126101a1576020600254604051908152f35b50606036600319011261035e576004356102606104e5565b60018060a01b035f541690815f52600360205260405f20835f5260205260405f209060018060a01b03825416833b1561035e575f916084839260405194859384926383d2524160e01b8452600484015289602484015260018060a01b03169788604484015260443560648401525af180156103535761033e575b50827f2bbc64d6afd28a753f6c5e4aaa894f1d684c44a0e080167eae104ac8505cfebd60206001808060a01b03855416940154604051908152a460018060a01b03825416825260036020526040822090825260205280600160408220828155015580f35b61034b9194505f9061052b565b5f925f6102da565b6040513d5f823e3d90fd5b5f80fd5b3461035e575f36600319011261035e576001546040516001600160a01b039091168152602090f35b3461035e57602036600319011261035e5760043560018060a01b035f54165f52600360205260405f20815f526020525f600160408220828155015533907fc116abad2a02ba3ce14050336137b8c63fa9fb38efd9381b7b81f7c93223aba35f80a3005b3461035e57602036600319011261035e575f602060405161040d816104fb565b828152015260018060a01b035f54165f52600360205260405f206004355f526020526040805f20815161043f816104fb565b81546001600160a01b0316808252600190920154602091820190815283519283525190820152f35b3461035e575f36600319011261035e575f546040516001600160a01b039091168152602090f35b3461035e57604036600319011261035e576004356001600160a01b038116919082900361035e576040915f526003602052815f206024355f52602052815f206001808060a01b038254169101549082526020820152f35b602435906001600160a01b038216820361035e57565b6040810190811067ffffffffffffffff82111761051757604052565b634e487b7160e01b5f52604160045260245ffd5b90601f8019910116810190811067ffffffffffffffff8211176105175760405256fea26469706673582212206a43de3b52423a78796bc44b37e1082d3ffe390fea6cf48b104790e29305ef3a64736f6c634300081c0033","linkReferences":{}},"methodIdentifiers":{"buyTicket(uint256,address,bytes32)":"64808974","delistTicket(uint256)":"2bbe807b","feePercentage()":"a001ecdd","feeRecipient()":"46904840","getListing(uint256)":"107a274a","initialize(address)":"c4d66de8","listTicketForResale(uint256,address,uint256)":"d70bc084","listings(address,uint256)":"0007df30","ticketFactory()":"068f46ce"},"id":40}