{"abi":[{"type":"constructor","inputs":[],"stateMutability":"nonpayable"},{"type":"function","name":"addExternalFlight","inputs":[{"name":"flightNumber","type":"string","internalType":"string"},{"name":"departure","type":"string","internalType":"string"},{"name":"destination","type":"string","internalType":"string"},{"name":"departureTime","type":"string","internalType":"string"},{"name":"arrivalTime","type":"string","internalType":"string"},{"name":"numberOfSeats","type":"uint256","internalType":"uint256"}],"outputs":[{"name":"","type":"uint256","internalType":"uint256"}],"stateMutability":"nonpayable"},{"type":"function","name":"airlines","inputs":[{"name":"","type":"address","internalType":"address"}],"outputs":[{"name":"name","type":"string","internalType":"string"},{"name":"iataCode","type":"string","internalType":"string"},{"name":"metadataURI","type":"string","internalType":"string"},{"name":"airlineAddress","type":"address","internalType":"address"},{"name":"isAuthorized","type":"bool","internalType":"bool"}],"stateMutability":"view"},{"type":"function","name":"approve","inputs":[{"name":"to","type":"address","internalType":"address"},{"name":"tokenId","type":"uint256","internalType":"uint256"}],"outputs":[],"stateMutability":"nonpayable"},{"type":"function","name":"balanceOf","inputs":[{"name":"owner","type":"address","internalType":"address"}],"outputs":[{"name":"","type":"uint256","internalType":"uint256"}],"stateMutability":"view"},{"type":"function","name":"checkInTicket","inputs":[{"name":"ticketId","type":"uint256","internalType":"uint256"},{"name":"_seatNumber","type":"string","internalType":"string"}],"outputs":[],"stateMutability":"nonpayable"},{"type":"function","name":"createFlight","inputs":[{"name":"flightNumber","type":"string","internalType":"string"},{"name":"departure","type":"string","internalType":"string"},{"name":"destination","type":"string","internalType":"string"},{"name":"date","type":"string","internalType":"string"},{"name":"numberOfTickets","type":"uint256","internalType":"uint256"},{"name":"seatNumbers","type":"string[]","internalType":"string[]"},{"name":"arrivalTime","type":"string","internalType":"string"}],"outputs":[{"name":"","type":"uint256","internalType":"uint256"}],"stateMutability":"nonpayable"},{"type":"function","name":"flightCounter","inputs":[],"outputs":[{"name":"","type":"uint256","internalType":"uint256"}],"stateMutability":"view"},{"type":"function","name":"flightTickets","inputs":[{"name":"","type":"uint256","internalType":"uint256"},{"name":"","type":"uint256","internalType":"uint256"}],"outputs":[{"name":"owner","type":"address","internalType":"address"},{"name":"ticketId","type":"uint256","internalType":"uint256"},{"name":"flightId","type":"uint256","internalType":"uint256"},{"name":"price","type":"uint256","internalType":"uint256"},{"name":"class","type":"string","internalType":"string"},{"name":"isUsed","type":"bool","internalType":"bool"},{"name":"hashedUserInfo","type":"bytes32","internalType":"bytes32"},{"name":"checkedIn","type":"bool","internalType":"bool"},{"name":"seatNumber","type":"string","internalType":"string"},{"name":"isActive","type":"bool","internalType":"bool"},{"name":"isAvailable","type":"bool","internalType":"bool"}],"stateMutability":"view"},{"type":"function","name":"flights","inputs":[{"name":"","type":"uint256","internalType":"uint256"}],"outputs":[{"name":"flightNumber","type":"string","internalType":"string"},{"name":"airlineAddress","type":"address","internalType":"address"},{"name":"flightId","type":"uint256","internalType":"uint256"},{"name":"departure","type":"string","internalType":"string"},{"name":"destination","type":"string","internalType":"string"},{"name":"departureTime","type":"string","internalType":"string"},{"name":"arrivalTime","type":"string","internalType":"string"},{"name":"totalTickets","type":"uint256","internalType":"uint256"},{"name":"availableTickets","type":"uint256","internalType":"uint256"},{"name":"isActive","type":"bool","internalType":"bool"},{"name":"shared","type":"bool","internalType":"bool"},{"name":"isExternal","type":"bool","internalType":"bool"}],"stateMutability":"view"},{"type":"function","name":"getApproved","inputs":[{"name":"tokenId","type":"uint256","internalType":"uint256"}],"outputs":[{"name":"","type":"address","internalType":"address"}],"stateMutability":"view"},{"type":"function","name":"getHashedUserInfo","inputs":[{"name":"tokenId","type":"uint256","internalType":"uint256"}],"outputs":[{"name":"","type":"bytes32","internalType":"bytes32"}],"stateMutability":"view"},{"type":"function","name":"isApprovedForAll","inputs":[{"name":"owner","type":"address","internalType":"address"},{"name":"operator","type":"address","internalType":"address"}],"outputs":[{"name":"","type":"bool","internalType":"bool"}],"stateMutability":"view"},{"type":"function","name":"modifyTicket","inputs":[{"name":"ticketId","type":"uint256","internalType":"uint256"},{"name":"flightNumber","type":"string","internalType":"string"},{"name":"departure","type":"string","internalType":"string"},{"name":"destination","type":"string","internalType":"string"},{"name":"departureTime","type":"string","internalType":"string"},{"name":"arrivalTime","type":"string","internalType":"string"},{"name":"totalTickets","type":"uint256","internalType":"uint256"}],"outputs":[],"stateMutability":"payable"},{"type":"function","name":"modifyTicket","inputs":[{"name":"ticketId","type":"uint256","internalType":"uint256"},{"name":"newFlightId","type":"uint256","internalType":"uint256"}],"outputs":[],"stateMutability":"nonpayable"},{"type":"function","name":"myInsecureApprove","inputs":[{"name":"to","type":"address","internalType":"address"},{"name":"ticketId","type":"uint256","internalType":"uint256"}],"outputs":[],"stateMutability":"nonpayable"},{"type":"function","name":"name","inputs":[],"outputs":[{"name":"","type":"string","internalType":"string"}],"stateMutability":"view"},{"type":"function","name":"ownerOf","inputs":[{"name":"tokenId","type":"uint256","internalType":"uint256"}],"outputs":[{"name":"","type":"address","internalType":"address"}],"stateMutability":"view"},{"type":"function","name":"purchaseExternalTicket","inputs":[{"name":"flightNumber","type":"string","internalType":"string"},{"name":"departure","type":"string","internalType":"string"},{"name":"destination","type":"string","internalType":"string"},{"name":"departureTime","type":"string","internalType":"string"},{"name":"arrivalTime","type":"string","internalType":"string"},{"name":"totalTickets","type":"uint256","internalType":"uint256"},{"name":"hashedUserInfo","type":"bytes32","internalType":"bytes32"},{"name":"to","type":"address","internalType":"address"}],"outputs":[{"name":"","type":"uint256","internalType":"uint256"}],"stateMutability":"payable"},{"type":"function","name":"purchaseTicket","inputs":[{"name":"flightId","type":"uint256","internalType":"uint256"},{"name":"to","type":"address","internalType":"address"},{"name":"hashedUserInfo","type":"bytes32","internalType":"bytes32"}],"outputs":[],"stateMutability":"payable"},{"type":"function","name":"registerAirline","inputs":[{"name":"airlineAddress","type":"address","internalType":"address"},{"name":"name","type":"string","internalType":"string"},{"name":"iataCode","type":"string","internalType":"string"},{"name":"metadataURI","type":"string","internalType":"string"}],"outputs":[],"stateMutability":"nonpayable"},{"type":"function","name":"safeTransferFrom","inputs":[{"name":"from","type":"address","internalType":"address"},{"name":"to","type":"address","internalType":"address"},{"name":"tokenId","type":"uint256","internalType":"uint256"}],"outputs":[],"stateMutability":"nonpayable"},{"type":"function","name":"safeTransferFrom","inputs":[{"name":"from","type":"address","internalType":"address"},{"name":"to","type":"address","internalType":"address"},{"name":"tokenId","type":"uint256","internalType":"uint256"},{"name":"data","type":"bytes","internalType":"bytes"}],"outputs":[],"stateMutability":"nonpayable"},{"type":"function","name":"setAdmin","inputs":[{"name":"_adminWallet","type":"address","internalType":"address"}],"outputs":[],"stateMutability":"nonpayable"},{"type":"function","name":"setApprovalForAll","inputs":[{"name":"operator","type":"address","internalType":"address"},{"name":"approved","type":"bool","internalType":"bool"}],"outputs":[],"stateMutability":"nonpayable"},{"type":"function","name":"supportsInterface","inputs":[{"name":"interfaceId","type":"bytes4","internalType":"bytes4"}],"outputs":[{"name":"","type":"bool","internalType":"bool"}],"stateMutability":"view"},{"type":"function","name":"symbol","inputs":[],"outputs":[{"name":"","type":"string","internalType":"string"}],"stateMutability":"view"},{"type":"function","name":"ticketCounter","inputs":[],"outputs":[{"name":"","type":"uint256","internalType":"uint256"}],"stateMutability":"view"},{"type":"function","name":"ticketMetadata","inputs":[{"name":"","type":"uint256","internalType":"uint256"}],"outputs":[{"name":"owner","type":"address","internalType":"address"},{"name":"ticketId","type":"uint256","internalType":"uint256"},{"name":"flightId","type":"uint256","internalType":"uint256"},{"name":"price","type":"uint256","internalType":"uint256"},{"name":"class","type":"string","internalType":"string"},{"name":"isUsed","type":"bool","internalType":"bool"},{"name":"hashedUserInfo","type":"bytes32","internalType":"bytes32"},{"name":"checkedIn","type":"bool","internalType":"bool"},{"name":"seatNumber","type":"string","internalType":"string"},{"name":"isActive","type":"bool","internalType":"bool"},{"name":"isAvailable","type":"bool","internalType":"bool"}],"stateMutability":"view"},{"type":"function","name":"ticketMinted","inputs":[{"name":"","type":"uint256","internalType":"uint256"}],"outputs":[{"name":"","type":"bool","internalType":"bool"}],"stateMutability":"view"},{"type":"function","name":"ticketOwners","inputs":[{"name":"","type":"uint256","internalType":"uint256"}],"outputs":[{"name":"","type":"address","internalType":"address"}],"stateMutability":"view"},{"type":"function","name":"tokenByIndex","inputs":[{"name":"index","type":"uint256","internalType":"uint256"}],"outputs":[{"name":"","type":"uint256","internalType":"uint256"}],"stateMutability":"view"},{"type":"function","name":"tokenOfOwnerByIndex","inputs":[{"name":"owner","type":"address","internalType":"address"},{"name":"index","type":"uint256","internalType":"uint256"}],"outputs":[{"name":"","type":"uint256","internalType":"uint256"}],"stateMutability":"view"},{"type":"function","name":"tokenURI","inputs":[{"name":"tokenId","type":"uint256","internalType":"uint256"}],"outputs":[{"name":"","type":"string","internalType":"string"}],"stateMutability":"view"},{"type":"function","name":"totalSupply","inputs":[],"outputs":[{"name":"","type":"uint256","internalType":"uint256"}],"stateMutability":"view"},{"type":"function","name":"transferFrom","inputs":[{"name":"from","type":"address","internalType":"address"},{"name":"to","type":"address","internalType":"address"},{"name":"tokenId","type":"uint256","internalType":"uint256"}],"outputs":[],"stateMutability":"nonpayable"},{"type":"function","name":"transferTicket","inputs":[{"name":"from","type":"address","internalType":"address"},{"name":"ticketId","type":"uint256","internalType":"uint256"},{"name":"to","type":"address","internalType":"address"},{"name":"newHashedUserInfo","type":"bytes32","internalType":"bytes32"}],"outputs":[],"stateMutability":"nonpayable"},{"type":"function","name":"updateAirlineMetadata","inputs":[{"name":"airlineAddress","type":"address","internalType":"address"},{"name":"newMetadataURI","type":"string","internalType":"string"}],"outputs":[],"stateMutability":"nonpayable"},{"type":"event","name":"Approval","inputs":[{"name":"owner","type":"address","indexed":true,"internalType":"address"},{"name":"approved","type":"address","indexed":true,"internalType":"address"},{"name":"tokenId","type":"uint256","indexed":true,"internalType":"uint256"}],"anonymous":false},{"type":"event","name":"ApprovalForAll","inputs":[{"name":"owner","type":"address","indexed":true,"internalType":"address"},{"name":"operator","type":"address","indexed":true,"internalType":"address"},{"name":"approved","type":"bool","indexed":false,"internalType":"bool"}],"anonymous":false},{"type":"event","name":"FlightCreated","inputs":[{"name":"flightId","type":"uint256","indexed":true,"internalType":"uint256"},{"name":"flightNumber","type":"string","indexed":true,"internalType":"string"},{"name":"departure","type":"string","indexed":false,"internalType":"string"},{"name":"destination","type":"string","indexed":false,"internalType":"string"},{"name":"departureTime","type":"string","indexed":false,"internalType":"string"},{"name":"arrivalTime","type":"string","indexed":false,"internalType":"string"},{"name":"totalTickets","type":"uint256","indexed":false,"internalType":"uint256"},{"name":"availableTickets","type":"uint256","indexed":false,"internalType":"uint256"},{"name":"isActive","type":"bool","indexed":false,"internalType":"bool"},{"name":"shared","type":"bool","indexed":false,"internalType":"bool"},{"name":"airlineAddress","type":"address","indexed":false,"internalType":"address"}],"anonymous":false},{"type":"event","name":"TicketCheckedIn","inputs":[{"name":"ticketId","type":"uint256","indexed":true,"internalType":"uint256"},{"name":"flightId","type":"uint256","indexed":false,"internalType":"uint256"},{"name":"seatNumber","type":"string","indexed":false,"internalType":"string"},{"name":"user","type":"address","indexed":true,"internalType":"address"},{"name":"hashedUserInfo","type":"bytes32","indexed":false,"internalType":"bytes32"},{"name":"airline","type":"address","indexed":true,"internalType":"address"}],"anonymous":false},{"type":"event","name":"TicketModified","inputs":[{"name":"tokenId","type":"uint256","indexed":true,"internalType":"uint256"},{"name":"oldFlightID","type":"uint256","indexed":false,"internalType":"uint256"},{"name":"newFlightID","type":"uint256","indexed":false,"internalType":"uint256"},{"name":"user","type":"address","indexed":true,"internalType":"address"}],"anonymous":false},{"type":"event","name":"TicketPurchased","inputs":[{"name":"flightId","type":"uint256","indexed":true,"internalType":"uint256"},{"name":"ticketId","type":"uint256","indexed":true,"internalType":"uint256"},{"name":"buyer","type":"address","indexed":true,"internalType":"address"}],"anonymous":false},{"type":"event","name":"TicketTransferred","inputs":[{"name":"ticketId","type":"uint256","indexed":true,"internalType":"uint256"},{"name":"flightId","type":"uint256","indexed":true,"internalType":"uint256"},{"name":"seatNumber","type":"string","indexed":false,"internalType":"string"},{"name":"from","type":"address","indexed":true,"internalType":"address"},{"name":"to","type":"address","indexed":false,"internalType":"address"},{"name":"newHashedUserInfo","type":"bytes32","indexed":false,"internalType":"bytes32"}],"anonymous":false},{"type":"event","name":"Transfer","inputs":[{"name":"from","type":"address","indexed":true,"internalType":"address"},{"name":"to","type":"address","indexed":true,"internalType":"address"},{"name":"tokenId","type":"uint256","indexed":true,"internalType":"uint256"}],"anonymous":false},{"type":"error","name":"ERC721EnumerableForbiddenBatchMint","inputs":[]},{"type":"error","name":"ERC721IncorrectOwner","inputs":[{"name":"sender","type":"address","internalType":"address"},{"name":"tokenId","type":"uint256","internalType":"uint256"},{"name":"owner","type":"address","internalType":"address"}]},{"type":"error","name":"ERC721InsufficientApproval","inputs":[{"name":"operator","type":"address","internalType":"address"},{"name":"tokenId","type":"uint256","internalType":"uint256"}]},{"type":"error","name":"ERC721InvalidApprover","inputs":[{"name":"approver","type":"address","internalType":"address"}]},{"type":"error","name":"ERC721InvalidOperator","inputs":[{"name":"operator","type":"address","internalType":"address"}]},{"type":"error","name":"ERC721InvalidOwner","inputs":[{"name":"owner","type":"address","internalType":"address"}]},{"type":"error","name":"ERC721InvalidReceiver","inputs":[{"name":"receiver","type":"address","internalType":"address"}]},{"type":"error","name":"ERC721InvalidSender","inputs":[{"name":"sender","type":"address","internalType":"address"}]},{"type":"error","name":"ERC721NonexistentToken","inputs":[{"name":"tokenId","type":"uint256","internalType":"uint256"}]},{"type":"error","name":"ERC721OutOfBoundsIndex","inputs":[{"name":"owner","type":"address","internalType":"address"},{"name":"index","type":"uint256","internalType":"uint256"}]}],"bytecode":{"object":"0x60806040523461033857604080519081016001600160401b0381118282101761024e576040908152600e82526d105d9a585d1a5bdb951a58dad95d60921b602083015280519081016001600160401b0381118282101761024e57604052600381526210559560ea1b602082015281516001600160401b03811161024e575f54600181811c9116801561032e575b602082101461023057601f81116102cc575b50602092601f821160011461026d57928192935f92610262575b50508160011b915f199060031b1c1916175f555b80516001600160401b03811161024e57600154600181811c91168015610244575b602082101461023057601f81116101cd575b50602091601f821160011461016d579181925f92610162575b50508160011b915f199060031b1c1916176001555b600c80546001600160a01b03191673f39fd6e51aad88f6f4ce6ab8827279cfffb9226617905560405161405f908161033d8239f35b015190505f80610118565b601f1982169260015f52805f20915f5b8581106101b55750836001951061019d575b505050811b0160015561012d565b01515f1960f88460031b161c191690555f808061018f565b9192602060018192868501518155019401920161017d565b60015f527fb10e2d527612073b26eecdfd717e6a320cf44b4afac2b0732d9fcbe2b7fa0cf6601f830160051c81019160208410610226575b601f0160051c01905b81811061021b57506100ff565b5f815560010161020e565b9091508190610205565b634e487b7160e01b5f52602260045260245ffd5b90607f16906100ed565b634e487b7160e01b5f52604160045260245ffd5b015190505f806100b8565b601f198216935f8052805f20915f5b8681106102b4575083600195961061029c575b505050811b015f556100cc565b01515f1960f88460031b161c191690555f808061028f565b9192602060018192868501518155019401920161027c565b5f80527f290decd9548b62a8d60345a988386fc84ba6bc95484008f6362f93160ef3e563601f830160051c81019160208410610324575b601f0160051c01905b818110610319575061009e565b5f815560010161030c565b9091508190610303565b90607f169061008c565b5f80fdfe610140806040526004361015610013575f80fd5b5f905f3560e01c90816301ffc9a7146131165750806306fdde0314613074578063081812fc14613038578063095ea7b314612f4e57806315ccf70f14612e2d57806318160ddd14612e105780631ae09ac4146127db5780631fc037611461214257806323b872dd1461212b57806326d3235214611fc25780632f745c5914611f505780634168476914611e9e57806342842e0e14611e6f5780634f6ccce714611e21578063581751b014611dd1578063604d309c14611700578063633ee71b146115a55780636352211e14611575578063704b6c021461153c57806370a082311461151157806377b6171b14610e5757806383d2524114610cc55780638c4d59d014610ca857806392666b2214610a3457806395d89b4114610956578063a22cb465146108b2578063aee1b2a114610895578063b88d4fde14610828578063c87b56dd146107cf578063c9450ee7146107a2578063d641639014610773578063e985e9c51461071b578063ea05fc511461068b578063eb2dbcf614610658578063f4ad6bfe14610591578063fb3d20ec146102075763ff0daad4146101b6575f80fd5b34610204576040366003190112610204576101cf6131bf565b6024356101db81613931565b505f52600460205260405f209060018060a01b03166001600160601b0360a01b82541617905580f35b80fd5b5034610204576080366003190112610204576102216131bf565b6024356001600160401b03811161058d57610240903690600401613351565b6044356001600160401b0381116105895761025f903690600401613351565b906064356001600160401b0381116105855761027f903690600401613351565b6040519160a083018381106001600160401b038211176105715760405282526020820192835260408201908152606082019360018060a01b0316928385526080830193600185528652600f6020526040862092518051906001600160401b0382116104fb576102f8826102f287546131eb565b8761343f565b602090601f831160011461050f576103279291899183610415575b50508160011b915f199060031b1c19161790565b83555b51805160018401916001600160401b0382116104fb576103548261034e85546131eb565b8561343f565b602090601f83116001146104995761038292918991836104155750508160011b915f199060031b1c19161790565b90555b51805160028301916001600160401b038211610485576103a98261034e85546131eb565b602090601f83116001146104205791806103dc9260039695948a926104155750508160011b915f199060031b1c19161790565b90555b92519201805491516001600160a81b03199092166001600160a01b03939093169290921790151560a01b60ff60a01b1617905580f35b015190505f80610313565b8388528188209190601f198416895b81811061046d575091600193918560039897969410610456575b505050811b0190556103df565b01515f1983881b60f8161c191690555f8080610449565b9293602060018192878601518155019501930161042f565b634e487b7160e01b87526041600452602487fd5b8389528189209190601f1984168a5b8181106104e357509084600195949392106104cb575b505050811b019055610385565b01515f1960f88460031b161c191690555f80806104be565b929360206001819287860151815501950193016104a8565b634e487b7160e01b88526041600452602488fd5b8589528189209190601f1984168a5b8181106105595750908460019594939210610541575b505050811b01835561032a565b01515f1960f88460031b161c191690555f8080610534565b9293602060018192878601518155019501930161051e565b634e487b7160e01b5f52604160045260245ffd5b8480fd5b8380fd5b8280fd5b5034610204576105a0366133a9565b9080835260136020526002604084200191825492818552600d6020526105cf60ff600960408820015416613575565b838552600d60205260086040862001805490600182018092116106445755818552600d6020526040852060080180545f198101919082116106445790839291555560405192835260208301527fce3f0c5eb6128ebcb68eaf328e226646f5d6571273b1ee95ddad6cc4a5d5219e60403393a380f35b634e487b7160e01b87526011600452602487fd5b503461020457602036600319011261020457602090600435815260128252604060018060a01b0391205416604051908152f35b503461020457602036600319011261020457604090600435815260136020522060018060a01b03815416906107176001820154916002810154936003820154916106d760048201613260565b60ff60058301541660068301549060ff6007850154169260096106fc60088701613260565b950154966040519a8b9a60ff808b60081c169a16988c6133bf565b0390f35b50346102045760403660031901126102045760406107376131bf565b916107406131d5565b9260018060a01b031681526005602052209060018060a01b03165f52602052602060ff60405f2054166040519015158152f35b50346102045760203660031901126102045760ff60406020926004358152600e84522054166040519015158152f35b50346102045760203660031901126102045760066040602092600435815260138452200154604051908152f35b34610824576020366003190112610824576107eb600435613931565b505f6040516107fb60208261323f565b5261071760405161080d60208261323f565b5f815260405191829160208352602083019061319b565b5f80fd5b34610824576080366003190112610824576108416131bf565b6108496131d5565b90604435606435926001600160401b03841161082457366023850112156108245761088161089394369060248160040135910161331b565b9261088d8383836135b8565b33613f24565b005b34610824575f366003190112610824576020600b54604051908152f35b34610824576040366003190112610824576108cb6131bf565b6024359081151590818303610824576001600160a01b03169182156109435761091590335f52600560205260405f20845f5260205260405f209060ff801983541691151516179055565b6040519081527f17307eab39ab6107e8899845ad3d59bd9653f200f220920489ca2b5937696c3160203392a3005b82630b61174360e31b5f5260045260245ffd5b34610824575f366003190112610824576040515f600154610976816131eb565b8084529060018116908115610a1057506001146109b2575b6107178361099e8185038261323f565b60405191829160208352602083019061319b565b60015f9081527fb10e2d527612073b26eecdfd717e6a320cf44b4afac2b0732d9fcbe2b7fa0cf6939250905b8082106109f65750909150810160200161099e61098e565b9192600181602092548385880101520191019092916109de565b60ff191660208086019190915291151560051b8401909101915061099e905061098e565b34610824576040366003190112610824576024356004356001600160401b0382116108245736602383011215610824578160040135906001600160401b03821161082457366024838501011161082457805f52601360205260405f20600281019283545f52601160205260405f2060018301545f5260205260ff600583015416610c6357600782019060ff825416610c1e576008830195610adf82610ad989546131eb565b8961343f565b5f90601f8311600114610b91579180610b30927fd88d34adfe9e959e812a4b76585f98e4abd1c7b17bcc945c51753345c14545a09695945f92610b835750508160011b915f199060031b1c19161790565b86555b600160ff19825416179055825f526012602052610b75600660018060a01b0360405f2054169554920154956040519283526060602084015260608301906138b0565b9460408201528033950390a4005b602492500101358980610313565b601f19831691885f5260205f20925f5b818110610c0357509160019391857fd88d34adfe9e959e812a4b76585f98e4abd1c7b17bcc945c51753345c14545a09897969410610be7575b505050811b018655610b33565b01602401355f19600384901b60f8161c19169055888080610bda565b91936020600181926024888801013581550195019201610ba1565b60405162461bcd60e51b815260206004820152601b60248201527f596f75206861766520616c726561647920636865636b656420696e00000000006044820152606490fd5b60405162461bcd60e51b815260206004820152601c60248201527f5469636b65742068617320616c7265616479206265656e2075736564000000006044820152606490fd5b34610824575f366003190112610824576020600a54604051908152f35b3461082457608036600319011261082457610cde6131bf565b602435906044356001600160a01b038116919082810361082457606435918315610e1257845f52601360205260405f2091600283019081545f52601160205260405f2060018501545f52602052610d3c8760018060a01b0392613b91565b1680610d555786637e27328960e01b5f5260045260245ffd5b949593946001600160a01b038316808203610df857505091610ddc917f678aa82bb48202d7ec1fc4c10d369d82be1b5c4eb42f78764cdd278abab8f69993855f52601260205260405f20886001600160601b0360a01b8254161790558660068401556007830160ff19815416905554956040519384936060855260086060860191016138b0565b602084019890985260408301526001600160a01b0316950390a4005b85906364283d7b60e01b5f5260045260245260445260645ffd5b60405162461bcd60e51b815260206004820152601f60248201527f43616e6e6f74207472616e7366657220746f207a65726f2061646472657373006044820152606490fd5b346108245760c0366003190112610824576004356001600160401b03811161082457610e87903690600401613351565b60c0526024356001600160401b03811161082457610ea9903690600401613351565b6044356001600160401b03811161082457610ec8903690600401613351565b60e0526064356001600160401b03811161082457610eea903690600401613351565b906084356001600160401b03811161082457610f0a903690600401613351565b335f52600f60205260ff600360405f20015460a01c16156114cc57610f30600b54613431565b6101005261010051600b55604051610f4781613223565b60c0518152602081013381526040820161010051815260608301858152608084019060e051825260a085019288845260c086019487865260a43560e088015260a435610100880152600161012088015260016101408801526001610160880152610100515f52600d60205260405f206101205286518051906001600160401b03821161057157610fe782610fde61012051546131eb565b6101205161343f565b602090601f83116001146114635761101592915f91836114585750508160011b915f199060031b1c19161790565b61012051555b51610120516001810180546001600160a01b0319166001600160a01b0393909316929092179091559051600282015590518051600390920191906001600160401b038211610571576110718261034e85546131eb565b602090601f83116001146113f55761109f92915f91836113ea5750508160011b915f199060031b1c19161790565b90555b6004610120510190518051906001600160401b038211610571576110ca8261034e85546131eb565b602090601f8311600114611387576110f892915f918361137c5750508160011b915f199060031b1c19161790565b90555b6005610120510190518051906001600160401b038211610571576111238261034e85546131eb565b602090601f83116001146113195761115192915f918361130e5750508160011b915f199060031b1c19161790565b90555b518051906001600160401b038211610571576111868261117a60066101205101546131eb565b6006610120510161343f565b602090601f831160011461128d5791806111c5925f51602061400a5f395f51905f529695945f926112825750508160011b915f199060031b1c19161790565b60066101205101555b60e08101516007610120510155610100810151600861012051015561016060096101205101916112116101208201511515849060ff801983541691151516179055565b610140810151835461ff00191690151560081b61ff00161783550151815462ff0000191690151560101b62ff00001617905560c05161124f9061348e565b936112726040519283926101005196339260a4359260a4359260e05190886134aa565b0390a36020604051610100518152f35b015190508880610313565b90600661012051015f52805f20915f5b601f19851681106112f657509183916001935f51602061400a5f395f51905f52979695601f198116106112de575b505050811b0160066101205101556111ce565b01515f1960f88460031b161c191690558780806112cb565b9192602060018192868501518155019401920161129d565b015190508980610313565b90601f19831691845f52815f20925f5b818110611364575090846001959493921061134c575b505050811b019055611154565b01515f1960f88460031b161c1916905588808061133f565b92936020600181928786015181550195019301611329565b015190508a80610313565b90601f19831691845f52815f20925f5b8181106113d257509084600195949392106113ba575b505050811b0190556110fb565b01515f1960f88460031b161c191690558980806113ad565b92936020600181928786015181550195019301611397565b015190508b80610313565b90601f19831691845f52815f20925f5b8181106114405750908460019594939210611428575b505050811b0190556110a2565b01515f1960f88460031b161c191690558a808061141b565b92936020600181928786015181550195019301611405565b015190508d80610313565b90601f19831691610120515f52815f20925f5b8181106114b4575090846001959493921061149c575b505050811b01610120515561101b565b01515f1960f88460031b161c191690558c808061148c565b92936020600181928786015181550195019301611476565b60405162461bcd60e51b815260206004820152601960248201527f4e6f7420616e20617574686f72697a6564206169726c696e65000000000000006044820152606490fd5b3461082457602036600319011261082457602061153461152f6131bf565b61387f565b604051908152f35b34610824576020366003190112610824576001600160a01b0361155d6131bf565b166001600160601b0360a01b600c541617600c555f80f35b34610824576020366003190112610824576020611593600435613931565b6040516001600160a01b039091168152f35b6060366003190112610824576004356115bc6131d5565b600a54906040516115ce60208261323f565b5f81526001600160a01b038216156116ed576001600160a01b036115f3600184613b91565b166116da576116059060018333613def565b611610600a54613431565b600a555f82815260126020908152604080832080546001600160a01b0319166001600160a01b0390951694909417909355601381528282206001810185905560443560068201556002810186905560058101805460ff199081169091556007820180549091169055600901805461ff0019169055848252600d90522060080180545f198101919082116116c6575533917f94c5953e15f54d38b82a662bdd5739fc91af3a23d3ef7e67269dfaeee71a813c5f80a4005b634e487b7160e01b5f52601160045260245ffd5b6339e3563760e11b5f525f60045260245ffd5b633250574960e11b5f525f60045260245ffd5b60e0366003190112610824576004356024356001600160401b0381116108245761172e903690600401613351565b906044356001600160401b0381116108245761174e903690600401613351565b916064356001600160401b0381116108245761176e903690600401613351565b6084356001600160401b0381116108245761178d903690600401613351565b60805260a4356001600160401b038111610824576117af903690600401613351565b9060c435845f52601360205260405f209160028301938454976117d660805184838a6139cf565b80611dab57506117e7600b54613431565b9283600b5583976040516117fa81613223565b818152856020820133815260408301908282528960608501948886526080810188815260a08201608051815260c08301918c83528460e0850152610100840194855261012084019860018a526101408501975f895261016086019960018b525f52600d60205260405f209786518051906001600160401b0382116105715761188c826118868d546131eb565b8d61343f565b602090601f8311600114611d48576118ba92915f91836104155750508160011b915f199060031b1c19161790565b89555b516001890180546001600160a01b0319166001600160a01b039290921691909117905551600288015551805160038801916001600160401b0382116105715761190a8261034e85546131eb565b602090601f8311600114611ce55761193892915f91836104155750508160011b915f199060031b1c19161790565b90555b51805160048701916001600160401b0382116105715761195f8261034e85546131eb565b602090601f8311600114611c825761198d92915f91836104155750508160011b915f199060031b1c19161790565b90555b51805160058601916001600160401b038211610571576119b48261034e85546131eb565b602090601f8311600114611c1f576119e292915f91836104155750508160011b915f199060031b1c19161790565b90555b51805160068501916001600160401b03821161057157611a098261034e85546131eb565b602090601f8311600114611b915795611abc989560e05f51602061400a5f395f51905f529f9e9d9b9896611ad09d9a96611a6287611a8998600998611aa09c5f926104155750508160011b915f199060031b1c19161790565b90555b015160078301555160088201550194511515859060ff801983541691151516179055565b51835461ff00191690151560081b61ff0016178355565b51815462ff0000191690151560101b62ff00001617905561348e565b968060405195869533946080519188613525565b0390a35b825f52601160205260405f20845f5260205260405f20835f52600d602052600860405f2001908154915f1983019283116116c65760059460039387925555015460038201550160ff198154169055825f52600d602052600860405f2001805490600182018092116116c65755805f52600d602052600860405f20018054905f1982019182116116c6575560405192835260208301527fce3f0c5eb6128ebcb68eaf328e226646f5d6571273b1ee95ddad6cc4a5d5219e60403393a3005b90601f19831691845f52815f20925f5b818110611c0757505f51602061400a5f395f51905f529f9e9d9b989296611ad09d9a96600187600997611abc9f9c969b611aa09c611a899b60e09810611bef575b505050811b019055611a65565b01515f1960f88460031b161c191690555f8080611be2565b92936020600181928786015181550195019301611ba1565b90601f19831691845f52815f20925f5b818110611c6a5750908460019594939210611c52575b505050811b0190556119e5565b01515f1960f88460031b161c191690555f8080611c45565b92936020600181928786015181550195019301611c2f565b90601f19831691845f52815f20925f5b818110611ccd5750908460019594939210611cb5575b505050811b019055611990565b01515f1960f88460031b161c191690555f8080611ca8565b92936020600181928786015181550195019301611c92565b90601f19831691845f52815f20925f5b818110611d305750908460019594939210611d18575b505050811b01905561193b565b01515f1960f88460031b161c191690555f8080611d0b565b92936020600181928786015181550195019301611cf5565b90601f198316918c5f52815f20925f5b818110611d935750908460019594939210611d7b575b505050811b0189556118bd565b01515f1960f88460031b161c191690555f8080611d6e565b92936020600181928786015181550195019301611d58565b965050505050825f52600d602052611dcc60ff600960405f20015416613575565b611ad4565b3461082457611ddf366133a9565b905f52601160205260405f20905f5260205260405f2060018060a01b03815416906107176001820154916002810154936003820154916106d760048201613260565b3461082457602036600319011261082457600435600854811015611e5957611e4a602091613853565b90549060031b1c604051908152f35b63295f44f760e21b5f525f60045260245260445ffd5b3461082457610893611e803661336f565b9060405192611e9060208561323f565b5f845261088d8383836135b8565b34610824576020366003190112610824576001600160a01b03611ebf6131bf565b165f52600f602052611f1360405f20611ed781613260565b9060ff611f2f611ee960018401613260565b92611f216003611efb60028401613260565b9201549460405197889760a0895260a089019061319b565b90878203602089015261319b565b90858203604087015261319b565b6001600160a01b038316606085015260a09290921c16151560808301520390f35b3461082457604036600319011261082457611f696131bf565b60243590611f768161387f565b821015611fa55760018060a01b03165f52600660205260405f20905f52602052602060405f2054604051908152f35b63295f44f760e21b5f5260018060a01b031660045260245260445ffd5b3461082457604036600319011261082457611fdb6131bf565b6024356001600160401b03811161082457611ffa903690600401613351565b6001600160a01b039091165f818152600f602052604090206003015460a01c60ff16156120ed575f52600f602052600260405f200181516001600160401b038111610571576120538161204d84546131eb565b8461343f565b602092601f821160011461209157612082929382915f926120865750508160011b915f199060031b1c19161790565b9055005b015190508480610313565b601f19821693835f52805f20915f5b8681106120d557508360019596106120bd575b505050811b019055005b01515f1960f88460031b161c191690558380806120b3565b919260206001819286850151815501940192016120a0565b60405162461bcd60e51b8152602060048201526016602482015275105a5c9b1a5b99481b9bdd08185d5d1a1bdc9a5e995960521b6044820152606490fd5b346108245761089361213c3661336f565b916135b8565b610100366003190112610824576004356001600160401b0381116108245761216e903690600401613351565b6024356001600160401b0381116108245761218d903690600401613351565b906044356001600160401b038111610824576121ad903690600401613351565b916064356001600160401b038111610824576121cd903690600401613351565b60a0526084356001600160401b038111610824576121ef903690600401613351565b60e435936001600160a01b0385169260a43592908487036108245761221860a0518483896139cf565b806127b55750612229600b54613431565b9283600b55839660405161223c81613223565b818152856020820133815260408301908282528960608501948886526080810188815260a0820160a051815260c08301918c83528460e0850152610100840194855261012084019860018a526101408501976001895261016086019960018b525f52600d60205260405f209786518051906001600160401b038211610571576122c9826118868d546131eb565b602090601f8311600114612752576122f792915f91836104155750508160011b915f199060031b1c19161790565b89555b516001890180546001600160a01b0319166001600160a01b039290921691909117905551600288015551805160038801916001600160401b038211610571576123478261034e85546131eb565b602090601f83116001146126ef5761237592915f91836104155750508160011b915f199060031b1c19161790565b90555b51805160048701916001600160401b0382116105715761239c8261034e85546131eb565b602090601f831160011461268c576123ca92915f91836104155750508160011b915f199060031b1c19161790565b90555b51805160058601916001600160401b038211610571576123f18261034e85546131eb565b602090601f83116001146126295761241f92915f91836104155750508160011b915f199060031b1c19161790565b90555b51805160068501916001600160401b038211610571576124468261034e85546131eb565b602090601f83116001146125b4579561249f989560e05f51602061400a5f395f51905f529f9e9d9b98966124b39d9a96611a6287611a8998600998611aa09c5f926104155750508160011b915f199060031b1c19161790565b9680604051958695339460a0519188613525565b0390a35b600a54906020936040516124cb868261323f565b5f815282156116ed576001600160a01b036124e68584613b91565b166116da57836124f69233613def565b612501600a54613431565b600a55825f526011845260405f20825f52845260405f20825f526012855260405f20826001600160601b0360a01b825416179055835f52600d8552600860405f20019081545f1981019081116116c65760079255835f5260138652600360405f209185600184015560c4356006840155866002840155015460038201550160ff19815416905581604051937f94c5953e15f54d38b82a662bdd5739fc91af3a23d3ef7e67269dfaeee71a813c5f80a48152f35b90601f19831691845f52815f20925f5b81811061261157505f51602061400a5f395f51905f529f9e9d9b9892966124b39d9a9660018760099761249f9f9c969b611aa09c611a899b60e09810611bef57505050811b019055611a65565b929360206001819287860151815501950193016125c4565b90601f19831691845f52815f20925f5b818110612674575090846001959493921061265c575b505050811b019055612422565b01515f1960f88460031b161c191690555f808061264f565b92936020600181928786015181550195019301612639565b90601f19831691845f52815f20925f5b8181106126d757509084600195949392106126bf575b505050811b0190556123cd565b01515f1960f88460031b161c191690555f80806126b2565b9293602060018192878601518155019501930161269c565b90601f19831691845f52815f20925f5b81811061273a5750908460019594939210612722575b505050811b019055612378565b01515f1960f88460031b161c191690555f8080612715565b929360206001819287860151815501950193016126ff565b90601f198316918c5f52815f20925f5b81811061279d5750908460019594939210612785575b505050811b0189556122fa565b01515f1960f88460031b161c191690555f8080612778565b92936020600181928786015181550195019301612762565b955050505050815f52600d6020526127d660ff600960405f20015416613575565b6124b7565b346108245760e0366003190112610824576004356001600160401b0381116108245761280b903690600401613351565b6024356001600160401b0381116108245761282a903690600401613351565b906044356001600160401b0381116108245761284a903690600401613351565b6064356001600160401b03811161082457612869903690600401613351565b906084359360a4356001600160401b0381116108245736602382011215610824578060040135906001600160401b03821161057157602460208360051b93604051906128b78387018361323f565b81520192820101903682116108245760248101925b828410612de1575050505060c4356001600160401b038111610824576128f6903690600401613351565b94612902600b54613431565b80600b556040519061291382613223565b868252602082013381526040830192828452606081018681526080820188815260a083018a815260c08401908d825260e08501928984526101008601948a865261012087019960018b5261014088019860018a5261016089019a5f8c525f52600d60205260405f2098518051906001600160401b0382116105715761299c826118868d546131eb565b602090601f8311600114612d7e576129ca92915f91836104155750508160011b915f199060031b1c19161790565b89555b516001890180546001600160a01b0319166001600160a01b039290921691909117905551600288015551805160038801916001600160401b03821161057157612a1a8261034e85546131eb565b602090601f8311600114612d1b57612a4892915f91836104155750508160011b915f199060031b1c19161790565b90555b51805160048701916001600160401b03821161057157612a6f8261034e85546131eb565b602090601f8311600114612cb857612a9d92915f91836104155750508160011b915f199060031b1c19161790565b90555b51805160058601916001600160401b03821161057157612ac48261034e85546131eb565b602090601f8311600114612c5557612af292915f91836104155750508160011b915f199060031b1c19161790565b90555b51805160068501916001600160401b03821161057157612b198261034e85546131eb565b602090601f8311600114612be55792612b5583611a89979460099794612b7b9b9a975f926104155750508160011b915f199060031b1c19161790565b90555b5160078301555160088201550194511515859060ff801983541691151516179055565b51815462ff0000191690151560101b62ff0000161790555f5b818110612bdd576020612bc388885f51602061400a5f395f51905f528989612bd28a8a80600b54998a9861348e565b986040519687963395886134aa565b0390a3604051908152f35b600101612b94565b90601f19831691845f52815f20925f5b818110612c3d57509360099693612b7b9a99969360019383611a899b9810612c25575b505050811b019055612b58565b01515f1960f88460031b161c191690555f8080612c18565b92936020600181928786015181550195019301612bf5565b90601f19831691845f52815f20925f5b818110612ca05750908460019594939210612c88575b505050811b019055612af5565b01515f1960f88460031b161c191690555f8080612c7b565b92936020600181928786015181550195019301612c65565b90601f19831691845f52815f20925f5b818110612d035750908460019594939210612ceb575b505050811b019055612aa0565b01515f1960f88460031b161c191690555f8080612cde565b92936020600181928786015181550195019301612cc8565b90601f19831691845f52815f20925f5b818110612d665750908460019594939210612d4e575b505050811b019055612a4b565b01515f1960f88460031b161c191690555f8080612d41565b92936020600181928786015181550195019301612d2b565b90601f198316918c5f52815f20925f5b818110612dc95750908460019594939210612db1575b505050811b0189556129cd565b01515f1960f88460031b161c191690555f8080612da4565b92936020600181928786015181550195019301612d8e565b83356001600160401b03811161082457602091612e05839260243691870101613351565b8152019301926128cc565b34610824575f366003190112610824576020600854604051908152f35b34610824576020366003190112610824576004355f52600d60205260405f20612e5581613260565b6001820154600283015492906001600160a01b0316612e7660038301613260565b91612e8360048201613260565b612e8f60058301613260565b612e9b60068401613260565b916007840154956008850154946009015495604051998a996101808b526101808b01612ec69161319b565b9160208b015260408a015288810360608a0152612ee29161319b565b8781036080890152612ef39161319b565b86810360a0880152612f049161319b565b85810360c0870152612f159161319b565b9260e085015261010084015260ff811615156101208401528060081c60ff16151561014084015260101c60ff1615156101608301520390f35b3461082457604036600319011261082457612f676131bf565b602435612f7381613931565b33151580613025575b80612ff8575b612fe55781906001600160a01b0384811691167f8c5be1e5ebec7d5bd14f71427d1e84f3dd0314c0f7b2291e5b200ac8c7c3b9255f80a45f90815260046020526040902080546001600160a01b0319166001600160a01b03909216919091179055005b63a9fbf51f60e01b5f523360045260245ffd5b506001600160a01b0381165f90815260056020908152604080832033845290915290205460ff1615612f82565b506001600160a01b038116331415612f7c565b346108245760203660031901126108245760043561305581613931565b505f526004602052602060018060a01b0360405f205416604051908152f35b34610824575f366003190112610824576040515f5f54613093816131eb565b8084529060018116908115610a1057506001146130ba576107178361099e8185038261323f565b5f8080527f290decd9548b62a8d60345a988386fc84ba6bc95484008f6362f93160ef3e563939250905b8082106130fc5750909150810160200161099e61098e565b9192600181602092548385880101520191019092916130e4565b34610824576020366003190112610824576004359063ffffffff60e01b82168092036108245760209163780e9d6360e01b8114908115613158575b5015158152f35b6380ac58cd60e01b81149150811561318a575b8115613179575b5083613151565b6301ffc9a760e01b14905083613172565b635b5e139f60e01b8114915061316b565b805180835260209291819084018484015e5f828201840152601f01601f1916010190565b600435906001600160a01b038216820361082457565b602435906001600160a01b038216820361082457565b90600182811c92168015613219575b602083101461320557565b634e487b7160e01b5f52602260045260245ffd5b91607f16916131fa565b61018081019081106001600160401b0382111761057157604052565b90601f801991011681019081106001600160401b0382111761057157604052565b9060405191825f825492613273846131eb565b80845293600181169081156132de575060011461329a575b506132989250038361323f565b565b90505f9291925260205f20905f915b8183106132c2575050906020613298928201015f61328b565b60209193508060019154838589010152019101909184926132a9565b90506020925061329894915060ff191682840152151560051b8201015f61328b565b6001600160401b03811161057157601f01601f191660200190565b92919261332782613300565b91613335604051938461323f565b829481845281830111610824578281602093845f960137010152565b9080601f830112156108245781602061336c9335910161331b565b90565b6060906003190112610824576004356001600160a01b038116810361082457906024356001600160a01b0381168103610824579060443590565b6040906003190112610824576004359060243590565b999b9a979361342197936133ff936101409b979360018060a01b03168d5260208d015260408c015260608b015261016060808b01526101608a019061319b565b93151560a089015260c0880152151560e087015285820361010087015261319b565b9415156101208401521515910152565b5f1981146116c65760010190565b601f821161344c57505050565b5f5260205f20906020601f840160051c83019310613484575b601f0160051c01905b818110613479575050565b5f815560010161346e565b9091508190613465565b602090604051918183925191829101835e81015f815203902090565b95926134ee906134e06134fc946134d2610100999c9b98956101208c526101208c019061319b565b908a820360208c015261319b565b9088820360408a015261319b565b90868203606088015261319b565b608085019690965260a0840152600160c0840181905260e08401526001600160a01b0316910152565b95926134ee906134e061354d946134d2610100999c9b98956101208c526101208c019061319b565b608085019690965260a0840152600160c08401525f60e08401526001600160a01b0316910152565b1561357c57565b60405162461bcd60e51b8152602060048201526014602482015273466c69676874206973206e6f742061637469766560601b6044820152606490fd5b9091906001600160a01b03831680156116ed575f838152600260205260409020546001600160a01b031693331515806137c3575b5084158015613790575b825f52600360205260405f2060018154019055845f52600260205260405f20836001600160601b0360a01b8254161790558483877fddf252ad1be2c89b69c2b068fc378daa952ba7f163c4a11628f55a4df523b3ef5f80a41561371357600854845f5260096020528060405f2055600160401b811015610571578461368482600161369c9401600855613853565b90919082549060031b91821b915f19901b1916179055565b8185036136d3575b50506001600160a01b03168083036136bb57505050565b6364283d7b60e01b5f5260045260245260445260645ffd5b6136dc9061387f565b5f198101919082116116c6575f52600660205260405f20815f526020528260405f2055825f52600760205260405f20555f806136a4565b84821461369c576137238561387f565b845f52600760205260405f205490865f52600660205260405f2091818103613765575b50855f5260076020525f60408120555f526020525f604081205561369c565b815f528260205260405f2054815f52836020528060405f20555f52600760205260405f20555f613746565b5f85815260046020526040902080546001600160a01b0319169055855f52600360205260405f205f1981540190556135f6565b80613802575b156137d4575f6135ec565b83856137ec57637e27328960e01b5f5260045260245ffd5b63177e802f60e01b5f523360045260245260445ffd5b503385148015613831575b806137c957505f848152600460205260409020546001600160a01b031633146137c9565b505f85815260056020908152604080832033845290915290205460ff1661380d565b60085481101561386b5760085f5260205f2001905f90565b634e487b7160e01b5f52603260045260245ffd5b6001600160a01b0316801561389d575f52600360205260405f205490565b6322718ad960e21b5f525f60045260245ffd5b5f92918154916138bf836131eb565b808352926001811690811561391457506001146138db57505050565b5f9081526020812093945091925b8383106138fa575060209250010190565b6001816020929493945483858701015201910191906138e9565b915050602093945060ff929192191683830152151560051b010190565b5f818152600260205260409020546001600160a01b0316908115613953575090565b637e27328960e01b5f5260045260245ffd5b5f9291815491613974836131eb565b92600181169081156139bc575060011461398d57505050565b90919293505f5260205f205f905b8382106139a85750500190565b60018160209254848601520191019061399b565b60ff191683525050811515909102019150565b909192600193600b54945b858111156139ec575050505050505f90565b805f52600d60205260405f206040516020810190613a1c81613a0e8486613965565b03601f19810183528261323f565b5190206040516020810190613a4b6020828a5180838d01875e81015f838201520301601f19810183528261323f565b519020149081613b3b575b81613ae7575b81613a93575b81613a84575b50613a7b57613a7690613431565b6139da565b94505050505090565b60ff915060090154165f613a68565b90506040516020810190613aae81613a0e8460058701613965565b5190206040516020810190613add602082895180838c01875e81015f838201520301601f19810183528261323f565b5190201490613a62565b90506040516020810190613b0281613a0e8460048701613965565b5190206040516020810190613b31602082885180838b01875e81015f838201520301601f19810183528261323f565b5190201490613a5c565b90506040516020810190613b5681613a0e8460038701613965565b5190206040516020810190613b87602082818c805191829101875e81015f838201520301601f19810183528261323f565b5190201490613a56565b5f828152600260205260409020546001600160a01b0316918215918215613dbc575b6001600160a01b038116928315908115613da4575b835f52600260205260405f20856001600160601b0360a01b8254161790558385877fddf252ad1be2c89b69c2b068fc378daa952ba7f163c4a11628f55a4df523b3ef5f80a415613d2757600854835f5260096020528060405f2055600160401b8110156105715783613684826001613c439401600855613853565b15613cd9575090506008545f1981019081116116c657815f526009602052613c6f60405f205491613853565b90549060031b1c613c838161368484613853565b5f52600960205260405f20555f5260096020525f60408120556008548015613cc5575f1901613cb181613853565b8154905f199060031b1b1916905560085590565b634e487b7160e01b5f52603160045260245ffd5b828403613ce7575b50505090565b613cf09061387f565b5f198101929083116116c6575f52600660205260405f20825f526020528060405f20555f52600760205260405f20555f8080613ce1565b848414613c4357613d378561387f565b835f52600760205260405f205490865f52600660205260405f2091818103613d79575b50845f5260076020525f60408120555f526020525f6040812055613c43565b815f528260205260405f2054815f52836020528060405f20555f52600760205260405f20555f613d5a565b845f52600360205260405f2060018154019055613bc8565b5f82815260046020526040902080546001600160a01b0319169055835f52600360205260405f205f198154019055613bb3565b9291813b613dfe575b50505050565b604051630a85bd0160e11b81526001600160a01b0394851660048201525f60248201526044810191909152608060648201529216919060209082908190613e4990608483019061319b565b03815f865af15f9181613edf575b50613eac57503d15613ea5573d613e6d81613300565b90613e7b604051928361323f565b81523d5f602083013e5b80519081613ea05782633250574960e11b5f5260045260245ffd5b602001fd5b6060613e85565b6001600160e01b03191663757a42ff60e11b01613ecd57505f808080613df8565b633250574960e11b5f5260045260245ffd5b9091506020813d602011613f1c575b81613efb6020938361323f565b8101031261082457516001600160e01b03198116810361082457905f613e57565b3d9150613eee565b823b613f32575b5050505050565b604051630a85bd0160e11b81526001600160a01b039182166004820152918116602483015260448201939093526080606482015291169160209082908190613f7e90608483019061319b565b03815f865af15f9181613fc4575b50613fa257503d15613ea5573d613e6d81613300565b6001600160e01b03191663757a42ff60e11b01613ecd57505f80808080613f2b565b9091506020813d602011614001575b81613fe06020938361323f565b8101031261082457516001600160e01b03198116810361082457905f613f8c565b3d9150613fd356fe51d386964aa84c4790b526ac9f9fb6f439c0f3cb7df699b71524cdfdc9368b53a2646970667358221220fe169954005d5664598961d2463cda17c42a1c2411a37c1f70c1646f071324a864736f6c634300081c0033","linkReferences":{}},"methodIdentifiers":{"addExternalFlight(string,string,string,string,string,uint256)":"77b6171b","airlines(address)":"41684769","approve(address,uint256)":"095ea7b3","balanceOf(address)":"70a08231","checkInTicket(uint256,string)":"92666b22","createFlight(string,string,string,string,uint256,string[],string)":"1ae09ac4","flightCounter()":"aee1b2a1","flightTickets(uint256,uint256)":"581751b0","flights(uint256)":"15ccf70f","getApproved(uint256)":"081812fc","getHashedUserInfo(uint256)":"c9450ee7","isApprovedForAll(address,address)":"e985e9c5","modifyTicket(uint256,string,string,string,string,string,uint256)":"604d309c","modifyTicket(uint256,uint256)":"f4ad6bfe","myInsecureApprove(address,uint256)":"ff0daad4","name()":"06fdde03","ownerOf(uint256)":"6352211e","purchaseExternalTicket(string,string,string,string,string,uint256,bytes32,address)":"1fc03761","purchaseTicket(uint256,address,bytes32)":"633ee71b","registerAirline(address,string,string,string)":"fb3d20ec","safeTransferFrom(address,address,uint256)":"42842e0e","safeTransferFrom(address,address,uint256,bytes)":"b88d4fde","setAdmin(address)":"704b6c02","setApprovalForAll(address,bool)":"a22cb465","supportsInterface(bytes4)":"01ffc9a7","symbol()":"95d89b41","ticketCounter()":"8c4d59d0","ticketMetadata(uint256)":"ea05fc51","ticketMinted(uint256)":"d6416390","ticketOwners(uint256)":"eb2dbcf6","tokenByIndex(uint256)":"4f6ccce7","tokenOfOwnerByIndex(address,uint256)":"2f745c59","tokenURI(uint256)":"c87b56dd","totalSupply()":"18160ddd","transferFrom(address,address,uint256)":"23b872dd","transferTicket(address,uint256,address,bytes32)":"83d25241","updateAirlineMetadata(address,string)":"26d32352"},"id":41}