{"abi":[{"type":"constructor","inputs":[],"stateMutability":"nonpayable"},{"type":"function","name":"addExternalFlight","inputs":[{"name":"flightNumber","type":"string","internalType":"string"},{"name":"departure","type":"string","internalType":"string"},{"name":"destination","type":"string","internalType":"string"},{"name":"departureTime","type":"string","internalType":"string"},{"name":"arrivalTime","type":"string","internalType":"string"},{"name":"numberOfSeats","type":"uint256","internalType":"uint256"}],"outputs":[{"name":"","type":"uint256","internalType":"uint256"}],"stateMutability":"nonpayable"},{"type":"function","name":"airlines","inputs":[{"name":"","type":"address","internalType":"address"}],"outputs":[{"name":"name","type":"string","internalType":"string"},{"name":"iataCode","type":"string","internalType":"string"},{"name":"metadataURI","type":"string","internalType":"string"},{"name":"airlineAddress","type":"address","internalType":"address"},{"name":"isAuthorized","type":"bool","internalType":"bool"}],"stateMutability":"view"},{"type":"function","name":"approve","inputs":[{"name":"to","type":"address","internalType":"address"},{"name":"tokenId","type":"uint256","internalType":"uint256"}],"outputs":[],"stateMutability":"nonpayable"},{"type":"function","name":"balanceOf","inputs":[{"name":"owner","type":"address","internalType":"address"}],"outputs":[{"name":"","type":"uint256","internalType":"uint256"}],"stateMutability":"view"},{"type":"function","name":"checkInTicket","inputs":[{"name":"ticketId","type":"uint256","internalType":"uint256"},{"name":"_seatNumber","type":"string","internalType":"string"}],"outputs":[],"stateMutability":"nonpayable"},{"type":"function","name":"createFlight","inputs":[{"name":"flightNumber","type":"string","internalType":"string"},{"name":"departure","type":"string","internalType":"string"},{"name":"destination","type":"string","internalType":"string"},{"name":"date","type":"string","internalType":"string"},{"name":"numberOfTickets","type":"uint256","internalType":"uint256"},{"name":"seatNumbers","type":"string[]","internalType":"string[]"},{"name":"arrivalTime","type":"string","internalType":"string"}],"outputs":[{"name":"","type":"uint256","internalType":"uint256"}],"stateMutability":"nonpayable"},{"type":"function","name":"flightCounter","inputs":[],"outputs":[{"name":"","type":"uint256","internalType":"uint256"}],"stateMutability":"view"},{"type":"function","name":"flightTickets","inputs":[{"name":"","type":"uint256","internalType":"uint256"},{"name":"","type":"uint256","internalType":"uint256"}],"outputs":[{"name":"owner","type":"address","internalType":"address"},{"name":"ticketId","type":"uint256","internalType":"uint256"},{"name":"flightId","type":"uint256","internalType":"uint256"},{"name":"price","type":"uint256","internalType":"uint256"},{"name":"class","type":"string","internalType":"string"},{"name":"isUsed","type":"bool","internalType":"bool"},{"name":"hashedUserInfo","type":"bytes32","internalType":"bytes32"},{"name":"checkedIn","type":"bool","internalType":"bool"},{"name":"seatNumber","type":"string","internalType":"string"},{"name":"isActive","type":"bool","internalType":"bool"},{"name":"isAvailable","type":"bool","internalType":"bool"}],"stateMutability":"view"},{"type":"function","name":"flights","inputs":[{"name":"","type":"uint256","internalType":"uint256"}],"outputs":[{"name":"flightNumber","type":"string","internalType":"string"},{"name":"airlineAddress","type":"address","internalType":"address"},{"name":"flightId","type":"uint256","internalType":"uint256"},{"name":"departure","type":"string","internalType":"string"},{"name":"destination","type":"string","internalType":"string"},{"name":"departureTime","type":"string","internalType":"string"},{"name":"arrivalTime","type":"string","internalType":"string"},{"name":"totalTickets","type":"uint256","internalType":"uint256"},{"name":"availableTickets","type":"uint256","internalType":"uint256"},{"name":"isActive","type":"bool","internalType":"bool"},{"name":"shared","type":"bool","internalType":"bool"},{"name":"isExternal","type":"bool","internalType":"bool"}],"stateMutability":"view"},{"type":"function","name":"getApproved","inputs":[{"name":"tokenId","type":"uint256","internalType":"uint256"}],"outputs":[{"name":"","type":"address","internalType":"address"}],"stateMutability":"view"},{"type":"function","name":"getHashedUserInfo","inputs":[{"name":"tokenId","type":"uint256","internalType":"uint256"}],"outputs":[{"name":"","type":"bytes32","internalType":"bytes32"}],"stateMutability":"view"},{"type":"function","name":"isApprovedForAll","inputs":[{"name":"owner","type":"address","internalType":"address"},{"name":"operator","type":"address","internalType":"address"}],"outputs":[{"name":"","type":"bool","internalType":"bool"}],"stateMutability":"view"},{"type":"function","name":"modifyTicket","inputs":[{"name":"ticketId","type":"uint256","internalType":"uint256"},{"name":"flightNumber","type":"string","internalType":"string"},{"name":"departure","type":"string","internalType":"string"},{"name":"destination","type":"string","internalType":"string"},{"name":"departureTime","type":"string","internalType":"string"},{"name":"arrivalTime","type":"string","internalType":"string"},{"name":"totalTickets","type":"uint256","internalType":"uint256"}],"outputs":[],"stateMutability":"payable"},{"type":"function","name":"modifyTicket","inputs":[{"name":"ticketId","type":"uint256","internalType":"uint256"},{"name":"newFlightId","type":"uint256","internalType":"uint256"}],"outputs":[],"stateMutability":"nonpayable"},{"type":"function","name":"myInsecureApprove","inputs":[{"name":"to","type":"address","internalType":"address"},{"name":"ticketId","type":"uint256","internalType":"uint256"}],"outputs":[],"stateMutability":"nonpayable"},{"type":"function","name":"name","inputs":[],"outputs":[{"name":"","type":"string","internalType":"string"}],"stateMutability":"view"},{"type":"function","name":"ownerOf","inputs":[{"name":"tokenId","type":"uint256","internalType":"uint256"}],"outputs":[{"name":"","type":"address","internalType":"address"}],"stateMutability":"view"},{"type":"function","name":"purchaseExternalTicket","inputs":[{"name":"flightNumber","type":"string","internalType":"string"},{"name":"departure","type":"string","internalType":"string"},{"name":"destination","type":"string","internalType":"string"},{"name":"departureTime","type":"string","internalType":"string"},{"name":"arrivalTime","type":"string","internalType":"string"},{"name":"totalTickets","type":"uint256","internalType":"uint256"},{"name":"hashedUserInfo","type":"bytes32","internalType":"bytes32"},{"name":"to","type":"address","internalType":"address"}],"outputs":[{"name":"","type":"uint256","internalType":"uint256"}],"stateMutability":"payable"},{"type":"function","name":"purchaseTicket","inputs":[{"name":"flightId","type":"uint256","internalType":"uint256"},{"name":"to","type":"address","internalType":"address"},{"name":"hashedUserInfo","type":"bytes32","internalType":"bytes32"}],"outputs":[],"stateMutability":"payable"},{"type":"function","name":"registerAirline","inputs":[{"name":"airlineAddress","type":"address","internalType":"address"},{"name":"name","type":"string","internalType":"string"},{"name":"iataCode","type":"string","internalType":"string"},{"name":"metadataURI","type":"string","internalType":"string"}],"outputs":[],"stateMutability":"nonpayable"},{"type":"function","name":"safeTransferFrom","inputs":[{"name":"from","type":"address","internalType":"address"},{"name":"to","type":"address","internalType":"address"},{"name":"tokenId","type":"uint256","internalType":"uint256"}],"outputs":[],"stateMutability":"nonpayable"},{"type":"function","name":"safeTransferFrom","inputs":[{"name":"from","type":"address","internalType":"address"},{"name":"to","type":"address","internalType":"address"},{"name":"tokenId","type":"uint256","internalType":"uint256"},{"name":"data","type":"bytes","internalType":"bytes"}],"outputs":[],"stateMutability":"nonpayable"},{"type":"function","name":"setAdmin","inputs":[{"name":"_adminWallet","type":"address","internalType":"address"}],"outputs":[],"stateMutability":"nonpayable"},{"type":"function","name":"setApprovalForAll","inputs":[{"name":"operator","type":"address","internalType":"address"},{"name":"approved","type":"bool","internalType":"bool"}],"outputs":[],"stateMutability":"nonpayable"},{"type":"function","name":"supportsInterface","inputs":[{"name":"interfaceId","type":"bytes4","internalType":"bytes4"}],"outputs":[{"name":"","type":"bool","internalType":"bool"}],"stateMutability":"view"},{"type":"function","name":"symbol","inputs":[],"outputs":[{"name":"","type":"string","internalType":"string"}],"stateMutability":"view"},{"type":"function","name":"ticketCounter","inputs":[],"outputs":[{"name":"","type":"uint256","internalType":"uint256"}],"stateMutability":"view"},{"type":"function","name":"ticketMetadata","inputs":[{"name":"","type":"uint256","internalType":"uint256"}],"outputs":[{"name":"owner","type":"address","internalType":"address"},{"name":"ticketId","type":"uint256","internalType":"uint256"},{"name":"flightId","type":"uint256","internalType":"uint256"},{"name":"price","type":"uint256","internalType":"uint256"},{"name":"class","type":"string","internalType":"string"},{"name":"isUsed","type":"bool","internalType":"bool"},{"name":"hashedUserInfo","type":"bytes32","internalType":"bytes32"},{"name":"checkedIn","type":"bool","internalType":"bool"},{"name":"seatNumber","type":"string","internalType":"string"},{"name":"isActive","type":"bool","internalType":"bool"},{"name":"isAvailable","type":"bool","internalType":"bool"}],"stateMutability":"view"},{"type":"function","name":"ticketMinted","inputs":[{"name":"","type":"uint256","internalType":"uint256"}],"outputs":[{"name":"","type":"bool","internalType":"bool"}],"stateMutability":"view"},{"type":"function","name":"ticketOwners","inputs":[{"name":"","type":"uint256","internalType":"uint256"}],"outputs":[{"name":"","type":"address","internalType":"address"}],"stateMutability":"view"},{"type":"function","name":"tokenByIndex","inputs":[{"name":"index","type":"uint256","internalType":"uint256"}],"outputs":[{"name":"","type":"uint256","internalType":"uint256"}],"stateMutability":"view"},{"type":"function","name":"tokenOfOwnerByIndex","inputs":[{"name":"owner","type":"address","internalType":"address"},{"name":"index","type":"uint256","internalType":"uint256"}],"outputs":[{"name":"","type":"uint256","internalType":"uint256"}],"stateMutability":"view"},{"type":"function","name":"tokenURI","inputs":[{"name":"tokenId","type":"uint256","internalType":"uint256"}],"outputs":[{"name":"","type":"string","internalType":"string"}],"stateMutability":"view"},{"type":"function","name":"totalSupply","inputs":[],"outputs":[{"name":"","type":"uint256","internalType":"uint256"}],"stateMutability":"view"},{"type":"function","name":"transferFrom","inputs":[{"name":"from","type":"address","internalType":"address"},{"name":"to","type":"address","internalType":"address"},{"name":"tokenId","type":"uint256","internalType":"uint256"}],"outputs":[],"stateMutability":"nonpayable"},{"type":"function","name":"transferTicket","inputs":[{"name":"from","type":"address","internalType":"address"},{"name":"ticketId","type":"uint256","internalType":"uint256"},{"name":"to","type":"address","internalType":"address"},{"name":"newHashedUserInfo","type":"bytes32","internalType":"bytes32"}],"outputs":[],"stateMutability":"nonpayable"},{"type":"function","name":"updateAirlineMetadata","inputs":[{"name":"airlineAddress","type":"address","internalType":"address"},{"name":"newMetadataURI","type":"string","internalType":"string"}],"outputs":[],"stateMutability":"nonpayable"},{"type":"event","name":"Approval","inputs":[{"name":"owner","type":"address","indexed":true,"internalType":"address"},{"name":"approved","type":"address","indexed":true,"internalType":"address"},{"name":"tokenId","type":"uint256","indexed":true,"internalType":"uint256"}],"anonymous":false},{"type":"event","name":"ApprovalForAll","inputs":[{"name":"owner","type":"address","indexed":true,"internalType":"address"},{"name":"operator","type":"address","indexed":true,"internalType":"address"},{"name":"approved","type":"bool","indexed":false,"internalType":"bool"}],"anonymous":false},{"type":"event","name":"FlightCreated","inputs":[{"name":"flightId","type":"uint256","indexed":true,"internalType":"uint256"},{"name":"flightNumber","type":"string","indexed":true,"internalType":"string"},{"name":"departure","type":"string","indexed":false,"internalType":"string"},{"name":"destination","type":"string","indexed":false,"internalType":"string"},{"name":"departureTime","type":"string","indexed":false,"internalType":"string"},{"name":"arrivalTime","type":"string","indexed":false,"internalType":"string"},{"name":"totalTickets","type":"uint256","indexed":false,"internalType":"uint256"},{"name":"availableTickets","type":"uint256","indexed":false,"internalType":"uint256"},{"name":"isActive","type":"bool","indexed":false,"internalType":"bool"},{"name":"shared","type":"bool","indexed":false,"internalType":"bool"},{"name":"airlineAddress","type":"address","indexed":false,"internalType":"address"}],"anonymous":false},{"type":"event","name":"TicketCheckedIn","inputs":[{"name":"ticketId","type":"uint256","indexed":true,"internalType":"uint256"},{"name":"flightId","type":"uint256","indexed":false,"internalType":"uint256"},{"name":"seatNumber","type":"string","indexed":false,"internalType":"string"},{"name":"user","type":"address","indexed":true,"internalType":"address"},{"name":"hashedUserInfo","type":"bytes32","indexed":false,"internalType":"bytes32"},{"name":"airline","type":"address","indexed":true,"internalType":"address"}],"anonymous":false},{"type":"event","name":"TicketModified","inputs":[{"name":"tokenId","type":"uint256","indexed":true,"internalType":"uint256"},{"name":"oldFlightID","type":"uint256","indexed":false,"internalType":"uint256"},{"name":"newFlightID","type":"uint256","indexed":false,"internalType":"uint256"},{"name":"user","type":"address","indexed":true,"internalType":"address"}],"anonymous":false},{"type":"event","name":"TicketPurchased","inputs":[{"name":"flightId","type":"uint256","indexed":true,"internalType":"uint256"},{"name":"ticketId","type":"uint256","indexed":true,"internalType":"uint256"},{"name":"buyer","type":"address","indexed":true,"internalType":"address"}],"anonymous":false},{"type":"event","name":"TicketTransferred","inputs":[{"name":"ticketId","type":"uint256","indexed":true,"internalType":"uint256"},{"name":"flightId","type":"uint256","indexed":true,"internalType":"uint256"},{"name":"seatNumber","type":"string","indexed":false,"internalType":"string"},{"name":"from","type":"address","indexed":true,"internalType":"address"},{"name":"to","type":"address","indexed":false,"internalType":"address"},{"name":"newHashedUserInfo","type":"bytes32","indexed":false,"internalType":"bytes32"}],"anonymous":false},{"type":"event","name":"Transfer","inputs":[{"name":"from","type":"address","indexed":true,"internalType":"address"},{"name":"to","type":"address","indexed":true,"internalType":"address"},{"name":"tokenId","type":"uint256","indexed":true,"internalType":"uint256"}],"anonymous":false},{"type":"error","name":"ERC721EnumerableForbiddenBatchMint","inputs":[]},{"type":"error","name":"ERC721IncorrectOwner","inputs":[{"name":"sender","type":"address","internalType":"address"},{"name":"tokenId","type":"uint256","internalType":"uint256"},{"name":"owner","type":"address","internalType":"address"}]},{"type":"error","name":"ERC721InsufficientApproval","inputs":[{"name":"operator","type":"address","internalType":"address"},{"name":"tokenId","type":"uint256","internalType":"uint256"}]},{"type":"error","name":"ERC721InvalidApprover","inputs":[{"name":"approver","type":"address","internalType":"address"}]},{"type":"error","name":"ERC721InvalidOperator","inputs":[{"name":"operator","type":"address","internalType":"address"}]},{"type":"error","name":"ERC721InvalidOwner","inputs":[{"name":"owner","type":"address","internalType":"address"}]},{"type":"error","name":"ERC721InvalidReceiver","inputs":[{"name":"receiver","type":"address","internalType":"address"}]},{"type":"error","name":"ERC721InvalidSender","inputs":[{"name":"sender","type":"address","internalType":"address"}]},{"type":"error","name":"ERC721NonexistentToken","inputs":[{"name":"tokenId","type":"uint256","internalType":"uint256"}]},{"type":"error","name":"ERC721OutOfBoundsIndex","inputs":[{"name":"owner","type":"address","internalType":"address"},{"name":"index","type":"uint256","internalType":"uint256"}]}],"bytecode":{"object":"0x60806040523461033857604080519081016001600160401b0381118282101761024e576040908152600e82526d105d9a585d1a5bdb951a58dad95d60921b602083015280519081016001600160401b0381118282101761024e57604052600381526210559560ea1b602082015281516001600160401b03811161024e575f54600181811c9116801561032e575b602082101461023057601f81116102cc575b50602092601f821160011461026d57928192935f92610262575b50508160011b915f199060031b1c1916175f555b80516001600160401b03811161024e57600154600181811c91168015610244575b602082101461023057601f81116101cd575b50602091601f821160011461016d579181925f92610162575b50508160011b915f199060031b1c1916176001555b600c80546001600160a01b03191673cc3dcd86d470eb14fbb83fd614d16a103314271e17905560405161405c908161033d8239f35b015190505f80610118565b601f1982169260015f52805f20915f5b8581106101b55750836001951061019d575b505050811b0160015561012d565b01515f1960f88460031b161c191690555f808061018f565b9192602060018192868501518155019401920161017d565b60015f527fb10e2d527612073b26eecdfd717e6a320cf44b4afac2b0732d9fcbe2b7fa0cf6601f830160051c81019160208410610226575b601f0160051c01905b81811061021b57506100ff565b5f815560010161020e565b9091508190610205565b634e487b7160e01b5f52602260045260245ffd5b90607f16906100ed565b634e487b7160e01b5f52604160045260245ffd5b015190505f806100b8565b601f198216935f8052805f20915f5b8681106102b4575083600195961061029c575b505050811b015f556100cc565b01515f1960f88460031b161c191690555f808061028f565b9192602060018192868501518155019401920161027c565b5f80527f290decd9548b62a8d60345a988386fc84ba6bc95484008f6362f93160ef3e563601f830160051c81019160208410610324575b601f0160051c01905b818110610319575061009e565b5f815560010161030c565b9091508190610303565b90607f169061008c565b5f80fdfe610140806040526004361015610013575f80fd5b5f905f3560e01c90816301ffc9a7146130435750806306fdde0314612fa1578063081812fc14612f65578063095ea7b314612f3e57806315ccf70f14612e1d57806318160ddd14612e005780631ae09ac4146127cb5780631fc037611461213257806323b872dd1461211b57806326d3235214611fb25780632f745c5914611f405780634168476914611e8e57806342842e0e14611e5f5780634f6ccce714611e11578063581751b014611dc1578063604d309c146116f0578063633ee71b146115955780636352211e14611565578063704b6c021461152c57806370a082311461150157806377b6171b14610e4757806383d2524114610cb55780638c4d59d014610c9857806392666b2214610a2457806395d89b4114610946578063a22cb465146108a2578063aee1b2a114610885578063b88d4fde14610818578063c87b56dd146107bf578063c9450ee714610792578063d641639014610763578063e985e9c51461070b578063ea05fc511461067b578063eb2dbcf614610648578063f4ad6bfe14610581578063fb3d20ec146101f75763ff0daad4146101b6575f80fd5b346101f45760403660031901126101f4576101f16101d26130ec565b602435808452601360205260408420546001600160a01b031691613f36565b80f35b80fd5b50346101f45760803660031901126101f4576102116130ec565b6024356001600160401b03811161057d5761023090369060040161327e565b6044356001600160401b0381116105795761024f90369060040161327e565b906064356001600160401b0381116105755761026f90369060040161327e565b6040519160a083018381106001600160401b038211176105615760405282526020820192835260408201908152606082019360018060a01b0316928385526080830193600185528652600f6020526040862092518051906001600160401b0382116104eb576102e8826102e28754613118565b8761336c565b602090601f83116001146104ff576103179291899183610405575b50508160011b915f199060031b1c19161790565b83555b51805160018401916001600160401b0382116104eb576103448261033e8554613118565b8561336c565b602090601f83116001146104895761037292918991836104055750508160011b915f199060031b1c19161790565b90555b51805160028301916001600160401b038211610475576103998261033e8554613118565b602090601f83116001146104105791806103cc9260039695948a926104055750508160011b915f199060031b1c19161790565b90555b92519201805491516001600160a81b03199092166001600160a01b03939093169290921790151560a01b60ff60a01b1617905580f35b015190505f80610303565b8388528188209190601f198416895b81811061045d575091600193918560039897969410610446575b505050811b0190556103cf565b01515f1983881b60f8161c191690555f8080610439565b9293602060018192878601518155019501930161041f565b634e487b7160e01b87526041600452602487fd5b8389528189209190601f1984168a5b8181106104d357509084600195949392106104bb575b505050811b019055610375565b01515f1960f88460031b161c191690555f80806104ae565b92936020600181928786015181550195019301610498565b634e487b7160e01b88526041600452602488fd5b8589528189209190601f1984168a5b8181106105495750908460019594939210610531575b505050811b01835561031a565b01515f1960f88460031b161c191690555f8080610524565b9293602060018192878601518155019501930161050e565b634e487b7160e01b5f52604160045260245ffd5b8480fd5b8380fd5b8280fd5b50346101f457610590366132d6565b9080835260136020526002604084200191825492818552600d6020526105bf60ff6009604088200154166134a2565b838552600d60205260086040862001805490600182018092116106345755818552600d6020526040852060080180545f198101919082116106345790839291555560405192835260208301527fce3f0c5eb6128ebcb68eaf328e226646f5d6571273b1ee95ddad6cc4a5d5219e60403393a380f35b634e487b7160e01b87526011600452602487fd5b50346101f45760203660031901126101f457602090600435815260128252604060018060a01b0391205416604051908152f35b50346101f45760203660031901126101f457604090600435815260136020522060018060a01b03815416906107076001820154916002810154936003820154916106c76004820161318d565b60ff60058301541660068301549060ff6007850154169260096106ec6008870161318d565b950154966040519a8b9a60ff808b60081c169a16988c6132ec565b0390f35b50346101f45760403660031901126101f45760406107276130ec565b91610730613102565b9260018060a01b031681526005602052209060018060a01b03165f52602052602060ff60405f2054166040519015158152f35b50346101f45760203660031901126101f45760ff60406020926004358152600e84522054166040519015158152f35b50346101f45760203660031901126101f45760066040602092600435815260138452200154604051908152f35b34610814576020366003190112610814576107db60043561385e565b505f6040516107eb60208261316c565b526107076040516107fd60208261316c565b5f81526040519182916020835260208301906130c8565b5f80fd5b34610814576080366003190112610814576108316130ec565b610839613102565b90604435606435926001600160401b038411610814573660238501121561081457610871610883943690602481600401359101613248565b9261087d8383836134e5565b33613e51565b005b34610814575f366003190112610814576020600b54604051908152f35b34610814576040366003190112610814576108bb6130ec565b6024359081151590818303610814576001600160a01b03169182156109335761090590335f52600560205260405f20845f5260205260405f209060ff801983541691151516179055565b6040519081527f17307eab39ab6107e8899845ad3d59bd9653f200f220920489ca2b5937696c3160203392a3005b82630b61174360e31b5f5260045260245ffd5b34610814575f366003190112610814576040515f60015461096681613118565b8084529060018116908115610a0057506001146109a2575b6107078361098e8185038261316c565b6040519182916020835260208301906130c8565b60015f9081527fb10e2d527612073b26eecdfd717e6a320cf44b4afac2b0732d9fcbe2b7fa0cf6939250905b8082106109e65750909150810160200161098e61097e565b9192600181602092548385880101520191019092916109ce565b60ff191660208086019190915291151560051b8401909101915061098e905061097e565b34610814576040366003190112610814576024356004356001600160401b0382116108145736602383011215610814578160040135906001600160401b03821161081457366024838501011161081457805f52601360205260405f20600281019283545f52601160205260405f2060018301545f5260205260ff600583015416610c5357600782019060ff825416610c0e576008830195610acf82610ac98954613118565b8961336c565b5f90601f8311600114610b81579180610b20927fd88d34adfe9e959e812a4b76585f98e4abd1c7b17bcc945c51753345c14545a09695945f92610b735750508160011b915f199060031b1c19161790565b86555b600160ff19825416179055825f526012602052610b65600660018060a01b0360405f2054169554920154956040519283526060602084015260608301906137dd565b9460408201528033950390a4005b602492500101358980610303565b601f19831691885f5260205f20925f5b818110610bf357509160019391857fd88d34adfe9e959e812a4b76585f98e4abd1c7b17bcc945c51753345c14545a09897969410610bd7575b505050811b018655610b23565b01602401355f19600384901b60f8161c19169055888080610bca565b91936020600181926024888801013581550195019201610b91565b60405162461bcd60e51b815260206004820152601b60248201527f596f75206861766520616c726561647920636865636b656420696e00000000006044820152606490fd5b60405162461bcd60e51b815260206004820152601c60248201527f5469636b65742068617320616c7265616479206265656e2075736564000000006044820152606490fd5b34610814575f366003190112610814576020600a54604051908152f35b3461081457608036600319011261081457610cce6130ec565b602435906044356001600160a01b038116919082810361081457606435918315610e0257845f52601360205260405f2091600283019081545f52601160205260405f2060018501545f52602052610d2c8760018060a01b0392613abe565b1680610d455786637e27328960e01b5f5260045260245ffd5b949593946001600160a01b038316808203610de857505091610dcc917f678aa82bb48202d7ec1fc4c10d369d82be1b5c4eb42f78764cdd278abab8f69993855f52601260205260405f20886001600160601b0360a01b8254161790558660068401556007830160ff19815416905554956040519384936060855260086060860191016137dd565b602084019890985260408301526001600160a01b0316950390a4005b85906364283d7b60e01b5f5260045260245260445260645ffd5b60405162461bcd60e51b815260206004820152601f60248201527f43616e6e6f74207472616e7366657220746f207a65726f2061646472657373006044820152606490fd5b346108145760c0366003190112610814576004356001600160401b03811161081457610e7790369060040161327e565b60c0526024356001600160401b03811161081457610e9990369060040161327e565b6044356001600160401b03811161081457610eb890369060040161327e565b60e0526064356001600160401b03811161081457610eda90369060040161327e565b906084356001600160401b03811161081457610efa90369060040161327e565b335f52600f60205260ff600360405f20015460a01c16156114bc57610f20600b5461335e565b6101005261010051600b55604051610f3781613150565b60c0518152602081013381526040820161010051815260608301858152608084019060e051825260a085019288845260c086019487865260a43560e088015260a435610100880152600161012088015260016101408801526001610160880152610100515f52600d60205260405f206101205286518051906001600160401b03821161056157610fd782610fce6101205154613118565b6101205161336c565b602090601f83116001146114535761100592915f91836114485750508160011b915f199060031b1c19161790565b61012051555b51610120516001810180546001600160a01b0319166001600160a01b0393909316929092179091559051600282015590518051600390920191906001600160401b038211610561576110618261033e8554613118565b602090601f83116001146113e55761108f92915f91836113da5750508160011b915f199060031b1c19161790565b90555b6004610120510190518051906001600160401b038211610561576110ba8261033e8554613118565b602090601f8311600114611377576110e892915f918361136c5750508160011b915f199060031b1c19161790565b90555b6005610120510190518051906001600160401b038211610561576111138261033e8554613118565b602090601f83116001146113095761114192915f91836112fe5750508160011b915f199060031b1c19161790565b90555b518051906001600160401b038211610561576111768261116a6006610120510154613118565b6006610120510161336c565b602090601f831160011461127d5791806111b5925f5160206140075f395f51905f529695945f926112725750508160011b915f199060031b1c19161790565b60066101205101555b60e08101516007610120510155610100810151600861012051015561016060096101205101916112016101208201511515849060ff801983541691151516179055565b610140810151835461ff00191690151560081b61ff00161783550151815462ff0000191690151560101b62ff00001617905560c05161123f906133bb565b936112626040519283926101005196339260a4359260a4359260e05190886133d7565b0390a36020604051610100518152f35b015190508880610303565b90600661012051015f52805f20915f5b601f19851681106112e657509183916001935f5160206140075f395f51905f52979695601f198116106112ce575b505050811b0160066101205101556111be565b01515f1960f88460031b161c191690558780806112bb565b9192602060018192868501518155019401920161128d565b015190508980610303565b90601f19831691845f52815f20925f5b818110611354575090846001959493921061133c575b505050811b019055611144565b01515f1960f88460031b161c1916905588808061132f565b92936020600181928786015181550195019301611319565b015190508a80610303565b90601f19831691845f52815f20925f5b8181106113c257509084600195949392106113aa575b505050811b0190556110eb565b01515f1960f88460031b161c1916905589808061139d565b92936020600181928786015181550195019301611387565b015190508b80610303565b90601f19831691845f52815f20925f5b8181106114305750908460019594939210611418575b505050811b019055611092565b01515f1960f88460031b161c191690558a808061140b565b929360206001819287860151815501950193016113f5565b015190508d80610303565b90601f19831691610120515f52815f20925f5b8181106114a4575090846001959493921061148c575b505050811b01610120515561100b565b01515f1960f88460031b161c191690558c808061147c565b92936020600181928786015181550195019301611466565b60405162461bcd60e51b815260206004820152601960248201527f4e6f7420616e20617574686f72697a6564206169726c696e65000000000000006044820152606490fd5b3461081457602036600319011261081457602061152461151f6130ec565b6137ac565b604051908152f35b34610814576020366003190112610814576001600160a01b0361154d6130ec565b166001600160601b0360a01b600c541617600c555f80f35b3461081457602036600319011261081457602061158360043561385e565b6040516001600160a01b039091168152f35b6060366003190112610814576004356115ac613102565b600a54906040516115be60208261316c565b5f81526001600160a01b038216156116dd576001600160a01b036115e3600184613abe565b166116ca576115f59060018333613d1c565b611600600a5461335e565b600a555f82815260126020908152604080832080546001600160a01b0319166001600160a01b0390951694909417909355601381528282206001810185905560443560068201556002810186905560058101805460ff199081169091556007820180549091169055600901805461ff0019169055848252600d90522060080180545f198101919082116116b6575533917f94c5953e15f54d38b82a662bdd5739fc91af3a23d3ef7e67269dfaeee71a813c5f80a4005b634e487b7160e01b5f52601160045260245ffd5b6339e3563760e11b5f525f60045260245ffd5b633250574960e11b5f525f60045260245ffd5b60e0366003190112610814576004356024356001600160401b0381116108145761171e90369060040161327e565b906044356001600160401b0381116108145761173e90369060040161327e565b916064356001600160401b0381116108145761175e90369060040161327e565b6084356001600160401b0381116108145761177d90369060040161327e565b60805260a4356001600160401b0381116108145761179f90369060040161327e565b9060c435845f52601360205260405f209160028301938454976117c660805184838a6138fc565b80611d9b57506117d7600b5461335e565b9283600b5583976040516117ea81613150565b818152856020820133815260408301908282528960608501948886526080810188815260a08201608051815260c08301918c83528460e0850152610100840194855261012084019860018a526101408501975f895261016086019960018b525f52600d60205260405f209786518051906001600160401b0382116105615761187c826118768d54613118565b8d61336c565b602090601f8311600114611d38576118aa92915f91836104055750508160011b915f199060031b1c19161790565b89555b516001890180546001600160a01b0319166001600160a01b039290921691909117905551600288015551805160038801916001600160401b038211610561576118fa8261033e8554613118565b602090601f8311600114611cd55761192892915f91836104055750508160011b915f199060031b1c19161790565b90555b51805160048701916001600160401b0382116105615761194f8261033e8554613118565b602090601f8311600114611c725761197d92915f91836104055750508160011b915f199060031b1c19161790565b90555b51805160058601916001600160401b038211610561576119a48261033e8554613118565b602090601f8311600114611c0f576119d292915f91836104055750508160011b915f199060031b1c19161790565b90555b51805160068501916001600160401b038211610561576119f98261033e8554613118565b602090601f8311600114611b815795611aac989560e05f5160206140075f395f51905f529f9e9d9b9896611ac09d9a96611a5287611a7998600998611a909c5f926104055750508160011b915f199060031b1c19161790565b90555b015160078301555160088201550194511515859060ff801983541691151516179055565b51835461ff00191690151560081b61ff0016178355565b51815462ff0000191690151560101b62ff0000161790556133bb565b968060405195869533946080519188613452565b0390a35b825f52601160205260405f20845f5260205260405f20835f52600d602052600860405f2001908154915f1983019283116116b65760059460039387925555015460038201550160ff198154169055825f52600d602052600860405f2001805490600182018092116116b65755805f52600d602052600860405f20018054905f1982019182116116b6575560405192835260208301527fce3f0c5eb6128ebcb68eaf328e226646f5d6571273b1ee95ddad6cc4a5d5219e60403393a3005b90601f19831691845f52815f20925f5b818110611bf757505f5160206140075f395f51905f529f9e9d9b989296611ac09d9a96600187600997611aac9f9c969b611a909c611a799b60e09810611bdf575b505050811b019055611a55565b01515f1960f88460031b161c191690555f8080611bd2565b92936020600181928786015181550195019301611b91565b90601f19831691845f52815f20925f5b818110611c5a5750908460019594939210611c42575b505050811b0190556119d5565b01515f1960f88460031b161c191690555f8080611c35565b92936020600181928786015181550195019301611c1f565b90601f19831691845f52815f20925f5b818110611cbd5750908460019594939210611ca5575b505050811b019055611980565b01515f1960f88460031b161c191690555f8080611c98565b92936020600181928786015181550195019301611c82565b90601f19831691845f52815f20925f5b818110611d205750908460019594939210611d08575b505050811b01905561192b565b01515f1960f88460031b161c191690555f8080611cfb565b92936020600181928786015181550195019301611ce5565b90601f198316918c5f52815f20925f5b818110611d835750908460019594939210611d6b575b505050811b0189556118ad565b01515f1960f88460031b161c191690555f8080611d5e565b92936020600181928786015181550195019301611d48565b965050505050825f52600d602052611dbc60ff600960405f200154166134a2565b611ac4565b3461081457611dcf366132d6565b905f52601160205260405f20905f5260205260405f2060018060a01b03815416906107076001820154916002810154936003820154916106c76004820161318d565b3461081457602036600319011261081457600435600854811015611e4957611e3a602091613780565b90549060031b1c604051908152f35b63295f44f760e21b5f525f60045260245260445ffd5b3461081457610883611e703661329c565b9060405192611e8060208561316c565b5f845261087d8383836134e5565b34610814576020366003190112610814576001600160a01b03611eaf6130ec565b165f52600f602052611f0360405f20611ec78161318d565b9060ff611f1f611ed96001840161318d565b92611f116003611eeb6002840161318d565b9201549460405197889760a0895260a08901906130c8565b9087820360208901526130c8565b9085820360408701526130c8565b6001600160a01b038316606085015260a09290921c16151560808301520390f35b3461081457604036600319011261081457611f596130ec565b60243590611f66816137ac565b821015611f955760018060a01b03165f52600660205260405f20905f52602052602060405f2054604051908152f35b63295f44f760e21b5f5260018060a01b031660045260245260445ffd5b3461081457604036600319011261081457611fcb6130ec565b6024356001600160401b03811161081457611fea90369060040161327e565b6001600160a01b039091165f818152600f602052604090206003015460a01c60ff16156120dd575f52600f602052600260405f200181516001600160401b038111610561576120438161203d8454613118565b8461336c565b602092601f821160011461208157612072929382915f926120765750508160011b915f199060031b1c19161790565b9055005b015190508480610303565b601f19821693835f52805f20915f5b8681106120c557508360019596106120ad575b505050811b019055005b01515f1960f88460031b161c191690558380806120a3565b91926020600181928685015181550194019201612090565b60405162461bcd60e51b8152602060048201526016602482015275105a5c9b1a5b99481b9bdd08185d5d1a1bdc9a5e995960521b6044820152606490fd5b346108145761088361212c3661329c565b916134e5565b610100366003190112610814576004356001600160401b0381116108145761215e90369060040161327e565b6024356001600160401b0381116108145761217d90369060040161327e565b906044356001600160401b0381116108145761219d90369060040161327e565b916064356001600160401b038111610814576121bd90369060040161327e565b60a0526084356001600160401b038111610814576121df90369060040161327e565b60e435936001600160a01b0385169260a43592908487036108145761220860a0518483896138fc565b806127a55750612219600b5461335e565b9283600b55839660405161222c81613150565b818152856020820133815260408301908282528960608501948886526080810188815260a0820160a051815260c08301918c83528460e0850152610100840194855261012084019860018a526101408501976001895261016086019960018b525f52600d60205260405f209786518051906001600160401b038211610561576122b9826118768d54613118565b602090601f8311600114612742576122e792915f91836104055750508160011b915f199060031b1c19161790565b89555b516001890180546001600160a01b0319166001600160a01b039290921691909117905551600288015551805160038801916001600160401b038211610561576123378261033e8554613118565b602090601f83116001146126df5761236592915f91836104055750508160011b915f199060031b1c19161790565b90555b51805160048701916001600160401b0382116105615761238c8261033e8554613118565b602090601f831160011461267c576123ba92915f91836104055750508160011b915f199060031b1c19161790565b90555b51805160058601916001600160401b038211610561576123e18261033e8554613118565b602090601f83116001146126195761240f92915f91836104055750508160011b915f199060031b1c19161790565b90555b51805160068501916001600160401b038211610561576124368261033e8554613118565b602090601f83116001146125a4579561248f989560e05f5160206140075f395f51905f529f9e9d9b98966124a39d9a96611a5287611a7998600998611a909c5f926104055750508160011b915f199060031b1c19161790565b9680604051958695339460a0519188613452565b0390a35b600a54906020936040516124bb868261316c565b5f815282156116dd576001600160a01b036124d68584613abe565b166116ca57836124e69233613d1c565b6124f1600a5461335e565b600a55825f526011845260405f20825f52845260405f20825f526012855260405f20826001600160601b0360a01b825416179055835f52600d8552600860405f20019081545f1981019081116116b65760079255835f5260138652600360405f209185600184015560c4356006840155866002840155015460038201550160ff19815416905581604051937f94c5953e15f54d38b82a662bdd5739fc91af3a23d3ef7e67269dfaeee71a813c5f80a48152f35b90601f19831691845f52815f20925f5b81811061260157505f5160206140075f395f51905f529f9e9d9b9892966124a39d9a9660018760099761248f9f9c969b611a909c611a799b60e09810611bdf57505050811b019055611a55565b929360206001819287860151815501950193016125b4565b90601f19831691845f52815f20925f5b818110612664575090846001959493921061264c575b505050811b019055612412565b01515f1960f88460031b161c191690555f808061263f565b92936020600181928786015181550195019301612629565b90601f19831691845f52815f20925f5b8181106126c757509084600195949392106126af575b505050811b0190556123bd565b01515f1960f88460031b161c191690555f80806126a2565b9293602060018192878601518155019501930161268c565b90601f19831691845f52815f20925f5b81811061272a5750908460019594939210612712575b505050811b019055612368565b01515f1960f88460031b161c191690555f8080612705565b929360206001819287860151815501950193016126ef565b90601f198316918c5f52815f20925f5b81811061278d5750908460019594939210612775575b505050811b0189556122ea565b01515f1960f88460031b161c191690555f8080612768565b92936020600181928786015181550195019301612752565b955050505050815f52600d6020526127c660ff600960405f200154166134a2565b6124a7565b346108145760e0366003190112610814576004356001600160401b038111610814576127fb90369060040161327e565b6024356001600160401b0381116108145761281a90369060040161327e565b906044356001600160401b0381116108145761283a90369060040161327e565b6064356001600160401b0381116108145761285990369060040161327e565b906084359360a4356001600160401b0381116108145736602382011215610814578060040135906001600160401b03821161056157602460208360051b93604051906128a78387018361316c565b81520192820101903682116108145760248101925b828410612dd1575050505060c4356001600160401b038111610814576128e690369060040161327e565b946128f2600b5461335e565b80600b556040519061290382613150565b868252602082013381526040830192828452606081018681526080820188815260a083018a815260c08401908d825260e08501928984526101008601948a865261012087019960018b5261014088019860018a5261016089019a5f8c525f52600d60205260405f2098518051906001600160401b0382116105615761298c826118768d54613118565b602090601f8311600114612d6e576129ba92915f91836104055750508160011b915f199060031b1c19161790565b89555b516001890180546001600160a01b0319166001600160a01b039290921691909117905551600288015551805160038801916001600160401b03821161056157612a0a8261033e8554613118565b602090601f8311600114612d0b57612a3892915f91836104055750508160011b915f199060031b1c19161790565b90555b51805160048701916001600160401b03821161056157612a5f8261033e8554613118565b602090601f8311600114612ca857612a8d92915f91836104055750508160011b915f199060031b1c19161790565b90555b51805160058601916001600160401b03821161056157612ab48261033e8554613118565b602090601f8311600114612c4557612ae292915f91836104055750508160011b915f199060031b1c19161790565b90555b51805160068501916001600160401b03821161056157612b098261033e8554613118565b602090601f8311600114612bd55792612b4583611a79979460099794612b6b9b9a975f926104055750508160011b915f199060031b1c19161790565b90555b5160078301555160088201550194511515859060ff801983541691151516179055565b51815462ff0000191690151560101b62ff0000161790555f5b818110612bcd576020612bb388885f5160206140075f395f51905f528989612bc28a8a80600b54998a986133bb565b986040519687963395886133d7565b0390a3604051908152f35b600101612b84565b90601f19831691845f52815f20925f5b818110612c2d57509360099693612b6b9a99969360019383611a799b9810612c15575b505050811b019055612b48565b01515f1960f88460031b161c191690555f8080612c08565b92936020600181928786015181550195019301612be5565b90601f19831691845f52815f20925f5b818110612c905750908460019594939210612c78575b505050811b019055612ae5565b01515f1960f88460031b161c191690555f8080612c6b565b92936020600181928786015181550195019301612c55565b90601f19831691845f52815f20925f5b818110612cf35750908460019594939210612cdb575b505050811b019055612a90565b01515f1960f88460031b161c191690555f8080612cce565b92936020600181928786015181550195019301612cb8565b90601f19831691845f52815f20925f5b818110612d565750908460019594939210612d3e575b505050811b019055612a3b565b01515f1960f88460031b161c191690555f8080612d31565b92936020600181928786015181550195019301612d1b565b90601f198316918c5f52815f20925f5b818110612db95750908460019594939210612da1575b505050811b0189556129bd565b01515f1960f88460031b161c191690555f8080612d94565b92936020600181928786015181550195019301612d7e565b83356001600160401b03811161081457602091612df583926024369187010161327e565b8152019301926128bc565b34610814575f366003190112610814576020600854604051908152f35b34610814576020366003190112610814576004355f52600d60205260405f20612e458161318d565b6001820154600283015492906001600160a01b0316612e666003830161318d565b91612e736004820161318d565b612e7f6005830161318d565b612e8b6006840161318d565b916007840154956008850154946009015495604051998a996101808b526101808b01612eb6916130c8565b9160208b015260408a015288810360608a0152612ed2916130c8565b8781036080890152612ee3916130c8565b86810360a0880152612ef4916130c8565b85810360c0870152612f05916130c8565b9260e085015261010084015260ff811615156101208401528060081c60ff16151561014084015260101c60ff1615156101608301520390f35b3461081457604036600319011261081457610883612f5a6130ec565b339060243590613f36565b3461081457602036600319011261081457600435612f828161385e565b505f526004602052602060018060a01b0360405f205416604051908152f35b34610814575f366003190112610814576040515f5f54612fc081613118565b8084529060018116908115610a005750600114612fe7576107078361098e8185038261316c565b5f8080527f290decd9548b62a8d60345a988386fc84ba6bc95484008f6362f93160ef3e563939250905b8082106130295750909150810160200161098e61097e565b919260018160209254838588010152019101909291613011565b34610814576020366003190112610814576004359063ffffffff60e01b82168092036108145760209163780e9d6360e01b8114908115613085575b5015158152f35b6380ac58cd60e01b8114915081156130b7575b81156130a6575b508361307e565b6301ffc9a760e01b1490508361309f565b635b5e139f60e01b81149150613098565b805180835260209291819084018484015e5f828201840152601f01601f1916010190565b600435906001600160a01b038216820361081457565b602435906001600160a01b038216820361081457565b90600182811c92168015613146575b602083101461313257565b634e487b7160e01b5f52602260045260245ffd5b91607f1691613127565b61018081019081106001600160401b0382111761056157604052565b90601f801991011681019081106001600160401b0382111761056157604052565b9060405191825f8254926131a084613118565b808452936001811690811561320b57506001146131c7575b506131c59250038361316c565b565b90505f9291925260205f20905f915b8183106131ef5750509060206131c5928201015f6131b8565b60209193508060019154838589010152019101909184926131d6565b9050602092506131c594915060ff191682840152151560051b8201015f6131b8565b6001600160401b03811161056157601f01601f191660200190565b9291926132548261322d565b91613262604051938461316c565b829481845281830111610814578281602093845f960137010152565b9080601f830112156108145781602061329993359101613248565b90565b6060906003190112610814576004356001600160a01b038116810361081457906024356001600160a01b0381168103610814579060443590565b6040906003190112610814576004359060243590565b999b9a979361334e979361332c936101409b979360018060a01b03168d5260208d015260408c015260608b015261016060808b01526101608a01906130c8565b93151560a089015260c0880152151560e08701528582036101008701526130c8565b9415156101208401521515910152565b5f1981146116b65760010190565b601f821161337957505050565b5f5260205f20906020601f840160051c830193106133b1575b601f0160051c01905b8181106133a6575050565b5f815560010161339b565b9091508190613392565b602090604051918183925191829101835e81015f815203902090565b959261341b9061340d613429946133ff610100999c9b98956101208c526101208c01906130c8565b908a820360208c01526130c8565b9088820360408a01526130c8565b9086820360608801526130c8565b608085019690965260a0840152600160c0840181905260e08401526001600160a01b0316910152565b959261341b9061340d61347a946133ff610100999c9b98956101208c526101208c01906130c8565b608085019690965260a0840152600160c08401525f60e08401526001600160a01b0316910152565b156134a957565b60405162461bcd60e51b8152602060048201526014602482015273466c69676874206973206e6f742061637469766560601b6044820152606490fd5b9091906001600160a01b03831680156116dd575f838152600260205260409020546001600160a01b031693331515806136f0575b50841580156136bd575b825f52600360205260405f2060018154019055845f52600260205260405f20836001600160601b0360a01b8254161790558483877fddf252ad1be2c89b69c2b068fc378daa952ba7f163c4a11628f55a4df523b3ef5f80a41561364057600854845f5260096020528060405f2055600160401b81101561056157846135b18260016135c99401600855613780565b90919082549060031b91821b915f19901b1916179055565b818503613600575b50506001600160a01b03168083036135e857505050565b6364283d7b60e01b5f5260045260245260445260645ffd5b613609906137ac565b5f198101919082116116b6575f52600660205260405f20815f526020528260405f2055825f52600760205260405f20555f806135d1565b8482146135c957613650856137ac565b845f52600760205260405f205490865f52600660205260405f2091818103613692575b50855f5260076020525f60408120555f526020525f60408120556135c9565b815f528260205260405f2054815f52836020528060405f20555f52600760205260405f20555f613673565b5f85815260046020526040902080546001600160a01b0319169055855f52600360205260405f205f198154019055613523565b8061372f575b15613701575f613519565b838561371957637e27328960e01b5f5260045260245ffd5b63177e802f60e01b5f523360045260245260445ffd5b50338514801561375e575b806136f657505f848152600460205260409020546001600160a01b031633146136f6565b505f85815260056020908152604080832033845290915290205460ff1661373a565b6008548110156137985760085f5260205f2001905f90565b634e487b7160e01b5f52603260045260245ffd5b6001600160a01b031680156137ca575f52600360205260405f205490565b6322718ad960e21b5f525f60045260245ffd5b5f92918154916137ec83613118565b8083529260018116908115613841575060011461380857505050565b5f9081526020812093945091925b838310613827575060209250010190565b600181602092949394548385870101520191019190613816565b915050602093945060ff929192191683830152151560051b010190565b5f818152600260205260409020546001600160a01b0316908115613880575090565b637e27328960e01b5f5260045260245ffd5b5f92918154916138a183613118565b92600181169081156138e957506001146138ba57505050565b90919293505f5260205f205f905b8382106138d55750500190565b6001816020925484860152019101906138c8565b60ff191683525050811515909102019150565b909192600193600b54945b85811115613919575050505050505f90565b805f52600d60205260405f2060405160208101906139498161393b8486613892565b03601f19810183528261316c565b51902060405160208101906139786020828a5180838d01875e81015f838201520301601f19810183528261316c565b519020149081613a68575b81613a14575b816139c0575b816139b1575b506139a8576139a39061335e565b613907565b94505050505090565b60ff915060090154165f613995565b905060405160208101906139db8161393b8460058701613892565b5190206040516020810190613a0a602082895180838c01875e81015f838201520301601f19810183528261316c565b519020149061398f565b90506040516020810190613a2f8161393b8460048701613892565b5190206040516020810190613a5e602082885180838b01875e81015f838201520301601f19810183528261316c565b5190201490613989565b90506040516020810190613a838161393b8460038701613892565b5190206040516020810190613ab4602082818c805191829101875e81015f838201520301601f19810183528261316c565b5190201490613983565b5f828152600260205260409020546001600160a01b0316918215918215613ce9575b6001600160a01b038116928315908115613cd1575b835f52600260205260405f20856001600160601b0360a01b8254161790558385877fddf252ad1be2c89b69c2b068fc378daa952ba7f163c4a11628f55a4df523b3ef5f80a415613c5457600854835f5260096020528060405f2055600160401b81101561056157836135b1826001613b709401600855613780565b15613c06575090506008545f1981019081116116b657815f526009602052613b9c60405f205491613780565b90549060031b1c613bb0816135b184613780565b5f52600960205260405f20555f5260096020525f60408120556008548015613bf2575f1901613bde81613780565b8154905f199060031b1b1916905560085590565b634e487b7160e01b5f52603160045260245ffd5b828403613c14575b50505090565b613c1d906137ac565b5f198101929083116116b6575f52600660205260405f20825f526020528060405f20555f52600760205260405f20555f8080613c0e565b848414613b7057613c64856137ac565b835f52600760205260405f205490865f52600660205260405f2091818103613ca6575b50845f5260076020525f60408120555f526020525f6040812055613b70565b815f528260205260405f2054815f52836020528060405f20555f52600760205260405f20555f613c87565b845f52600360205260405f2060018154019055613af5565b5f82815260046020526040902080546001600160a01b0319169055835f52600360205260405f205f198154019055613ae0565b9291813b613d2b575b50505050565b604051630a85bd0160e11b81526001600160a01b0394851660048201525f60248201526044810191909152608060648201529216919060209082908190613d769060848301906130c8565b03815f865af15f9181613e0c575b50613dd957503d15613dd2573d613d9a8161322d565b90613da8604051928361316c565b81523d5f602083013e5b80519081613dcd5782633250574960e11b5f5260045260245ffd5b602001fd5b6060613db2565b6001600160e01b03191663757a42ff60e11b01613dfa57505f808080613d25565b633250574960e11b5f5260045260245ffd5b9091506020813d602011613e49575b81613e286020938361316c565b8101031261081457516001600160e01b03198116810361081457905f613d84565b3d9150613e1b565b823b613e5f575b5050505050565b604051630a85bd0160e11b81526001600160a01b039182166004820152918116602483015260448201939093526080606482015291169160209082908190613eab9060848301906130c8565b03815f865af15f9181613ef1575b50613ecf57503d15613dd2573d613d9a8161322d565b6001600160e01b03191663757a42ff60e11b01613dfa57505f80808080613e58565b9091506020813d602011613f2e575b81613f0d6020938361316c565b8101031261081457516001600160e01b03198116810361081457905f613eb9565b3d9150613f00565b91613f408261385e565b906001600160a01b031680151580613ff3575b80613fca575b613fb8575081906001600160a01b0384811691167f8c5be1e5ebec7d5bd14f71427d1e84f3dd0314c0f7b2291e5b200ac8c7c3b9255f80a45f52600460205260405f209060018060a01b03166001600160601b0360a01b825416179055565b63a9fbf51f60e01b5f5260045260245ffd5b5060018060a01b0382165f52600560205260405f20815f5260205260ff60405f20541615613f59565b506001600160a01b038216811415613f5356fe51d386964aa84c4790b526ac9f9fb6f439c0f3cb7df699b71524cdfdc9368b53a2646970667358221220b315740905edbe75066d99a0d1b0aacbea66fe64642ace99138e6a6198b25ba764736f6c634300081c0033","linkReferences":{}},"methodIdentifiers":{"addExternalFlight(string,string,string,string,string,uint256)":"77b6171b","airlines(address)":"41684769","approve(address,uint256)":"095ea7b3","balanceOf(address)":"70a08231","checkInTicket(uint256,string)":"92666b22","createFlight(string,string,string,string,uint256,string[],string)":"1ae09ac4","flightCounter()":"aee1b2a1","flightTickets(uint256,uint256)":"581751b0","flights(uint256)":"15ccf70f","getApproved(uint256)":"081812fc","getHashedUserInfo(uint256)":"c9450ee7","isApprovedForAll(address,address)":"e985e9c5","modifyTicket(uint256,string,string,string,string,string,uint256)":"604d309c","modifyTicket(uint256,uint256)":"f4ad6bfe","myInsecureApprove(address,uint256)":"ff0daad4","name()":"06fdde03","ownerOf(uint256)":"6352211e","purchaseExternalTicket(string,string,string,string,string,uint256,bytes32,address)":"1fc03761","purchaseTicket(uint256,address,bytes32)":"633ee71b","registerAirline(address,string,string,string)":"fb3d20ec","safeTransferFrom(address,address,uint256)":"42842e0e","safeTransferFrom(address,address,uint256,bytes)":"b88d4fde","setAdmin(address)":"704b6c02","setApprovalForAll(address,bool)":"a22cb465","supportsInterface(bytes4)":"01ffc9a7","symbol()":"95d89b41","ticketCounter()":"8c4d59d0","ticketMetadata(uint256)":"ea05fc51","ticketMinted(uint256)":"d6416390","ticketOwners(uint256)":"eb2dbcf6","tokenByIndex(uint256)":"4f6ccce7","tokenOfOwnerByIndex(address,uint256)":"2f745c59","tokenURI(uint256)":"c87b56dd","totalSupply()":"18160ddd","transferFrom(address,address,uint256)":"23b872dd","transferTicket(address,uint256,address,bytes32)":"83d25241","updateAirlineMetadata(address,string)":"26d32352"},"id":41}